:020000040000FA
:100000005FEF21F0C96E12003EEF1DF0BAEC1FF059
:1000100049EC1EF012001200F8EF1EF0D9CFE5FFF8
:10002000E1CFD9FF00C0E5FF01C0E5FF02C0E5FF59
:1000300003C0E5FF04C0E5FF05C0E5FF06C0E5FF1E
:1000400007C0E5FF08C0E5FF09C0E5FF0AC0E5FFFE
:100050000BC0E5FF0CC0E5FF0DC0E5FF0EC0E5FFDE
:100060000FC0E5FF10C0E5FF11C0E5FF12C0E5FFBE
:1000700013C0E5FF14C0E5FF15C0E5FF16C0E5FF9E
:1000800017C0E5FF18C0E5FF19C0E5FF1AC0E5FF7E
:100090001BC0E5FF1CC0E5FF1DC0E5FF1EC0E5FF5E
:1000A000020EDBCF00F0030EDBCF01F0040EDBCF3E
:1000B00002F0050EDBCF03F0060EDBCF04F0070ED7
:1000C000DBCF05F0080EDBCF06F0090EDBCF07F023
:1000D0000A0EDBCF08F0096A0A6A02C00DF00D5063
:1000E000800A0DE102500F01286F0150276F005068
:1000F000266F0F0E016E260E006E800E026E03C07C
:10010000E9FF04C0F3FF055098EC21F00B6E0B5093
:10011000D8B4FCEF03F00B50250A02E0E3EF03F044
:100120000C6A0D6A0E6A0F6A106A0A0E116E126A64
:10013000136A146A200E156E1668176A2B0E186E55
:10014000032A02E3044A052A03C0E9FF04C0F3FFBF
:10015000055098EC21F0196E250A13E11950E56E4F
:100160000250E56E0150E56E0050E56EC4EC15F0EE
:10017000040EE126094A0A2A032A02E3044A052A50
:10018000BED71950300A06E1300E156E032A02E37D
:10019000044A052A03C0E9FF04C0F3FF055098ECA8
:1001A00021F02D0A06E1010E146E032A02E3044A2F
:1001B000052A03C0E9FF04C0F3FF055098EC21F0C5
:1001C000200A08E1010E176E200E186E032A02E3C2
:1001D000044A052A03C0E9FF04C0F3FF055098EC68
:1001E00021F02B0A06E1010E176E032A02E3044AEE
:1001F000052A03C0E9FF04C0F3FF055098EC21F085
:10020000196E800F4F0F2DE31950800F460F29E212
:1002100003C019F004C01AF005C01BF019C0E9FFB3
:100220001AC0F3FF1B5098EC21F01C6E800F500F8A
:1002300012E31C50800F460F0EE213500A0DF3CF4D
:100240001DF01D501C26D00E1C24136E192A02E32B
:100250001A4A1B2AE3D719C003F01AC004F01BC0C6
:1002600005F003C0E9FF04C0F3FF055098EC21F04E
:100270002E0A2EE1032A02E3044A052A166A03C065
:1002800019F004C01AF005C01BF019C0E9FF1AC02C
:10029000F3FF1B5098EC21F01C6E800F500F12E3FF
:1002A0001C50800F460F0EE216500A0DF3CF1DF0C2
:1002B0001D501C26D00E1C24166E192A02E31A4A61
:1002C0001B2AE3D719C003F01AC004F01BC005F0C5
:1002D00003C0E9FF04C0F3FF055098EC21F0196E4C
:1002E0006C0A07E1010E0C6E032A02E3044A052A98
:1002F00009D01950680A06E1010E0E6E032A02E3C6
:10030000044A052A03C0E9FF04C0F3FF055098EC36
:1003100021F0750A06E1010E106E032A02E3044A79
:10032000052A03C0E9FF04C0F3FF055098EC21F053
:10033000196E730A05E1010E0D6E200E156E3FD089
:100340001950780A03E1100E116E39D01950580A6D
:1003500005E1100E116E010E126E31D01950630AB4
:1003600002E1116A2CD019506F0A03E1080E116ED8
:1003700026D01950660A03E1010E0F6E20D01950E5
:10038000640A1DE01950690A1AE0105005E0FF0EDA
:1003900003260422052213D01950E56E0250E56EA3
:1003A0000150E56E0050E56EC4EC15F0040EE12638
:1003B000094A0A2A032A02E3044A052AA0D60D5054
:1003C00021E00650030F0D6E000E0720196E000E7F
:1003D00008201A6E0DC006F019C007F01AC008F008
:1003E000FD0E0D26FF0E19221A220DC0E9FF19C0BD
:1003F000F3FF1A5074EC20F00D6EF3CF19F0F4CF28
:100400001AF032D10F50D8B43ED00650040F0F6E00
:10041000000E07201B6E000E08201C6E0FC006F099
:100420001BC007F01CC008F0FC0E0F26FF0E1B229D
:100430001C220FC0E9FF1BC0F3FF1C50DDEC1FF0B6
:100440000F6EF3CF1BF0F4CF1CF0E9CF1DF0040EBC
:10045000196E000E0D6E800E1A6E1650E56E240E8B
:10046000E56E040EE56E000EE56E1D50E56E1C5047
:10047000E56E1B50E56E0F50E56E02EC0FF0080EB6
:10048000E1261668F1D016680C5023E00650040FE0
:100490000C6E000E07200F6E000E08201B6E0CC0A5
:1004A00006F00FC007F01BC008F0FC0E0C26FF0E74
:1004B0000F221B220CC0E9FF0FC0F3FF1B50DDEC25
:1004C0001FF00C6EF3CF0FF0F4CF1BF0E9CF1CF050
:1004D0006AD00E5032E00650020F0E6E000E07205A
:1004E0001D6E000E08201E6E0EC006F01DC007F027
:1004F0001EC008F0FE0E0E26FF0E1D221E220EC08C
:10050000E9FF1DC0F3FF1E5033EC21F00E6E0EC04C
:100510000CF0E86A0EBEFF0E0F6E1B6E1C6E1150C3
:100520000A0A03E11050D8B43ED00C500E6E0EC033
:100530000CF00F6A1B6A1C6A36D00650020F0E6E52
:10054000000E07201D6E000E08201E6E0EC006F065
:100550001DC007F01EC008F0FE0E0E26FF0E1D2265
:100560001E220EC0E9FF1DC0F3FF1E5033EC21F028
:100570000E6EF3CF1DF00EC00CF01DC00FF0E86A38
:100580001DBEFF0E1B6E1C6E11500A0A02E11050B8
:100590000AE00C500E6E0F501D6E0EC00CF01DC008
:1005A0000FF01B6A1C6A040E196E010E0D6E800E90
:1005B0001A6E1150D8B440D0105013E01150E56EAF
:1005C000040EE56E010EE56E1C50E56E1B50E56EE7
:1005D0000F50E56E0C50E56E20EC12F0070EE12690
:1005E00012D01150E56E040EE56E010EE56E1C5042
:1005F000E56E1B50E56E0F50E56E0C50E56EFAECA3
:1006000018F0070EE12617502FE00DC0E9FF19C0C2
:10061000F3FF1A5098EC21F02D0A26E0FF0E0D266C
:1006200019221A2218C0E5FF0DC0E9FF19C0F3FF17
:100630001A5034EC22F018D00CC0E5FF0DC0E9FFD1
:1006400019C0F3FF1A5034EC22F00D50010F0C6E5C
:10065000000E19200E6E000E1A20E56A0CC0E9FF8C
:100660000EC0F3FF34EC22F00DC00CF019C00EF0F8
:100670001AC00FF013C010F0105010E00CC0E9FFCA
:100680000EC0F3FF0F5098EC21F0176E175006E0E4
:100690000C2A02E30E4A0F2A1006EED710C013F000
:1006A00014501EE109C00CF00AC00EF010C00FF08B
:1006B0000F5010E01550E56E0250E56E0150E56EEA
:1006C0000050E56EC4EC15F0040EE1260C4A0E2A2B
:1006D0000F06EED70CC009F00EC00AF00FC013F0E1
:1006E00016C00CF00DC00DF019C00EF01AC00FF0BE
:1006F00009C010F00AC015F00DC0E9FF0EC0F3FFED
:100700000F5098EC21F0166E1650D8B43ED00CC0A5
:1007100016F0176A161E171E1650171005E00CC0AB
:1007200016F00C06165031E00DC0E9FF0EC0F3FFC5
:100730000F5098EC21F0116E125010E01150E56E40
:10074000F0EC20F0166EE652165004E01150166ED2
:10075000169A02D011C016F016C011F01150E56EB5
:100760000250E56E0150E56E0050E56EC4EC15F0E8
:10077000040EE1260D2A02E30E4A0F2A104A152A1A
:100780001350D8B4B9D71306B7D710C009F015C0A5
:100790000AF014502BE010C00CF015C00DF013C07F
:1007A0000EF00E501FE0200EE56E0250E56E015077
:1007B000E56E0050E56EC4EC15F0040EE1260C4A1F
:1007C0000D2A0E06EED70B50E56E0250E56E015075
:1007D000E56E0050E56EC4EC15F0040EE126094A02
:1007E0000A2A04D00CC009F00DC00AF0032A02E363
:1007F000044A052A7FEF00F00AC0F3FF0950E4CF56
:100800001EF0E4CF1DF0E4CF1CF0E4CF1BF0E4CFEA
:100810001AF0E4CF19F0E4CF18F0E4CF17F0E4CFEA
:1008200016F0E4CF15F0E4CF14F0E4CF13F0E4CFEA
:1008300012F0E4CF11F0E4CF10F0E4CF0FF0E4CFEA
:100840000EF0E4CF0DF0E4CF0CF0E4CF0BF0E4CFEA
:100850000AF0E4CF09F0E4CF08F0E4CF07F0E4CFEA
:1008600006F0E4CF05F0E4CF04F0E4CF03F0E4CFEA
:1008700002F0E4CF01F0E4CF00F0E4CFD9FF1200A2
:1008800005C0E5FF06C0E5FF07C0E5FF08C0E5FFBE
:1008900009C0E5FF0AC0E5FF0BC0E5FF0CC0E5FF9E
:1008A0000DC0E5FF0EC0E5FF0FC0E5FF10C0E5FF7E
:1008B00011C0E5FF12C0E5FF13C0E5FF14C0E5FF5E
:1008C00015C0E5FF16C0E5FF17C0E5FF18C0E5FF3E
:1008D00019C0E5FF1AC0E5FF1BC0E5FF1CC0E5FF1E
:1008E0001DC0E5FF000E00B0050F066AF60F02E31B
:1008F000062AFCD70A0F056E042E03D0FB0F01E376
:10090000062A065000B0020F00B2050F076AF60F64
:1009100002E3072AFCD70A0F066E042E03D0FB0F52
:1009200001E3072A075000B0060F00B2020F00B41F
:10093000050F086AF60F02E3082AFCD70A0F076EB4
:10094000042E03D0FB0F01E3082A085000B2010F68
:1009500000B4020F00B6050F096AF60F02E3092A78
:10096000FCD70A0F086E042E03D0FB0F01E3092AFF
:10097000095000B0090F00B2080F00B4060F00B60E
:10098000020F00B8050F0A6AF60F02E30A2AFCD725
:100990000A0F096E042E03D0FB0F01E30A2A0A5046
:1009A00000B0030F00B2070F00B4050F00B6010F2F
:1009B00000B8020F00BA050F0B6AF60F02E30B2A0C
:1009C000FCD70A0F0A6E042E03D0FB0F01E30B2A9B
:1009D0000B5000B0050F00B4010F00B6030F00B8B4
:1009E000060F00BA020F00BC050F0C6AF60F02E3F7
:1009F0000C2AFCD70A0F0B6E042E03D0FB0F01E369
:100A00000C2A0C5000B0070F00B2050F00BA010FFE
:100A100000BC020F00BE050F0D6AF60F02E30D2A9F
:100A2000FCD70A0F0C6E042E03D0FB0F01E30D2A36
:100A30000D5000B0070F00B2050F00B4010F00B653
:100A4000020F00B8040F00BA080F00BC060F00BE6A
:100A5000020F01B0050F0E6AF60F02E30E2AFCD753
:100A60000A0F0D6E042E03D0FB0F01E30E2A0E5069
:100A700000B0040F00B2090F00B4090F00B6080F50
:100A800000B8060F00BA020F00BC050F00BE010F30
:100A900001B0020F01B2050F0F6AF60F02E30F2A31
:100AA000FCD70A0F0E6E042E03D0FB0F01E30F2AB2
:100AB0000F5000B0040F00B2080F00B4070F00B6CB
:100AC000050F00B8010F00BA030F00BC060F00BEEF
:100AD000030F01B0060F01B2020F01B4050F106A37
:100AE000F60F02E3102AFCD70A0F0F6E042E03D074
:100AF000FB0F01E3102A105000B0060F00B2020FE6
:100B000000B4050F00B6010F00B8030F00BA060FBE
:100B100000BC020F00BE050F01B2010F01B4020FAD
:100B200001B6050F116AF60F02E3112AFCD70A0F6E
:100B3000106E042E03D0FB0F01E3112A115000B0F8
:100B4000040F00B2090F00B4080F00B6070F00B879
:100B5000040F00BA080F00BC070F00BE040F01B05D
:100B6000090F01B2080F01B4060F01B6020F01B858
:100B7000050F126AF60F02E3122AFCD70A0F116E54
:100B8000042E03D0FB0F01E3122A125000B4010F10
:100B900000B6030F00B8070F00BA040F00BC090F1E
:100BA00000BE090F01B0080F01B2070F01B4050F15
:100BB00001B6010F01B8020F01BA050F136AF60F53
:100BC00002E3132AFCD70A0F126E042E03D0FB0F88
:100BD00001E3132A135000B0060F00B2020F00B455
:100BE000040F00B6080F00B8060F00BA030F00BCD0
:100BF000060F00BE030F01B0070F01B2050F01B4CD
:100C0000010F01B6030F01B8060F01BA020F01BCB4
:100C1000050F146AF60F02E3142AFCD70A0F136EAD
:100C2000042E03D0FB0F01E3142A145000B0090F67
:100C300000B2090F00B4080F00B6060F00B8030F8A
:100C400000BA070F00BC040F00BE090F01B0080F67
:100C500001B2070F01B4050F01BA010F01BC020F69
:100C600001BE050F156AF60F02E3152AFCD70A0F1D
:100C7000146E042E03D0FB0F01E3152A155000B0AB
:100C8000050F00B2010F00B4030F00B6070F00B844
:100C9000050F00BC010F00BE020F01B0050F01B22D
:100CA000010F01B4030F01B6070F01B8040F01BA19
:100CB000080F01BC060F01BE020F02B0050F166A35
:100CC000F60F02E3162AFCD70A0F156E042E03D086
:100CD000FB0F01E3162A165000B2010F00B4020FF9
:100CE00000B6040F00B8090F00BA090F00BC080FC6
:100CF00000BE060F01B0020F01B2050F01B8010FCF
:100D000001BA020F01BC050F01BE010F02B0020FB4
:100D100002B2050F176AF60F02E3172AFCD70A0F73
:100D2000166E042E03D0FB0F01E3172A175000BAEA
:100D3000010F00BC030F00BE070F01B0050F01B487
:100D4000010F01B6020F01B8040F01BA080F01BC70
:100D5000060F01BE030F02B0060F02B2020F02B46B
:100D6000050F186AF60F02E3182AFCD70A0F176E50
:100D7000042E03D0FB0F01E3182A185001B0010F15
:100D800001B2030F01B4060F01B6020F01B8040F40
:100D900001BA080F01BC070F01BE050F02B2010F17
:100DA00002B4020F02B6050F196AF60F02E3192A00
:100DB000FCD70A0F186E042E03D0FB0F01E3192A8B
:100DC000195001B6010F01B8020F01BA040F01BC9E
:100DD000090F01BE090F02B0090F02B2080F02B4D9
:100DE000060F02B6020F02B8050F1A6AF60F02E3E9
:100DF0001A2AFCD70A0F196E042E03D0FB0F01E349
:100E00001A2A1A5001BE010F02B0030F02B2070FD7
:100E100002B4050F02B6010F02B8020F02BA050FA5
:100E20001B6AF60F02E31B2AFCD70A0F1A6E042E68
:100E300003D0FB0F01E31B2A1B5002B4010F02B6C3
:100E4000030F02B8060F02BA020F02BC050F1C6A9C
:100E5000F60F02E31C2AFCD70A0F1B6E042E03D0E8
:100E6000FB0F01E31C2A1C5002BA010F02BC020F47
:100E700002BE050F1D6AF60F02E31D2AFCD70A0FFA
:100E80001C6E042E03D0FB0F01E31D2A300FEE6E03
:100E90001B50300FEE6E1A50300FEE6E1950300F9F
:100EA000EE6E1850300FEE6E1750300FEE6E16507B
:100EB000300FEE6E1550300FEE6E1450300FEE6E98
:100EC0001350300FEE6E1250300FEE6E1150300F87
:100ED000EE6E1050300FEE6E0F50300FEE6E0E5063
:100EE000300FEE6E0D50300FEE6E0C50300FEE6E78
:100EF0000B50300FEE6E0A50300FEE6E0950300F6F
:100F0000EE6E0850300FEE6E0750300FEE6E06504A
:100F1000300FEE6E0550300FEE6E170EE4CF1DF061
:100F2000E4CF1CF0E4CF1BF0E4CF1AF0E4CF19F0CB
:100F3000E4CF18F0E4CF17F0E4CF16F0E4CF15F0CB
:100F4000E4CF14F0E4CF13F0E4CF12F0E4CF11F0CB
:100F5000E4CF10F0E4CF0FF0E4CF0EF0E4CF0DF0CB
:100F6000E4CF0CF0E4CF0BF0E4CF0AF0E4CF09F0CB
:100F7000E4CF08F0E4CF07F0E4CF06F0E4CF05F0CB
:100F8000120000C0E5FF01C0E5FF02C0E5FF03C09D
:100F9000E5FF04C0E5FF05C0E5FF06C0E5FF07C0AB
:100FA000E5FF08C0E5FF09C0E5FF0AC0E5FF0BC08B
:100FB000E5FF006A016A040E015CD8B0E8D10A01BD
:100FC000502B100E505D01E3506B0A015039E8447C
:100FD0001F0B026E036A290E02260F0E032202C0A7
:100FE000E9FF03C0EAFFEFCF02F0070E5015036ED2
:100FF000010E046E000E056E035006E0E86CD890FA
:1010000004360536010FFCE3066A0250041606504A
:101010000516045005E1055003E1046A042A01D0D5
:10102000046A0450D880E866D890046A04360450F4
:10103000D8B4C1D70A015051020DF450036EF3CF5A
:1010400002F0E00E0224046E000E0320056E04C0C0
:10105000E9FF05C0EAFFEECF04F0EFCF05F00A018B
:101060004DA19DD0B30E0224066E040E0320076E20
:1010700006C0E9FF07C0EAFFEECF06F0EFCF07F0AA
:101080000550800FF36E0750800FF35C02E10650AD
:10109000045C03E2046A056A60D0D30E0226040EE3
:1010A000032202C0E9FF03C0EAFFEECF02F0EFCF58
:1010B00003F00350800FF36E0550800FF35C02E1E4
:1010C0000450025C04E204683F0E056E46D00650F0
:1010D000045C086E07500558096EE86A09BEFF0EE9
:1010E0000A6EE56E0A50E56E0950E56E0850E56E31
:1010F000E56AE56A400EE56E000EE56A14EC10F054
:10110000086EF3CF09F0F4CF0AF0E9CF0BF0080E28
:10111000E1260650025C066E07500358076EE86A27
:1011200007BEFF0E026EE56E0250E56E0750E56EDB
:101130000650E56E0B50E56E0A50E56E0950E56EFF
:101140000850E56EAFEC14F0026EF3CF03F0080E1A
:10115000E1260250046E0350056E0A014C51800FC7
:10116000F36E0550800FF35C02E104504B5D03E326
:10117000046A056A14D00A014B51FF08026E3F0E43
:101180004C55036E0550800FF36E0350800FF35CD7
:1011900002E10250045C03E304683F0E056E0A019D
:1011A0005051020DF450036EF3CF02F0930E02265D
:1011B000040E032202C0E9FF03C0EAFFEECF02F0F3
:1011C000EFCF03F00250045C026E03500558036E2B
:1011D000D88003AED89004E3031E026CD8B4032A6F
:1011E000012A0A014C51800FF36E0350800FF35C0B
:1011F00002E102504B5DD8B0DED60A015051020D1B
:10120000F450076EF3CF06F0930E0626040E072265
:1012100006C0E9FF07C0EAFF04C0EEFF05C0EFFF0C
:101220000A014DA55AD00A015051020DF450076E23
:10123000F3CF06F0000E0624086E0A0E0720096E92
:1012400008C0E9FF09C0EAFFEECF0AF0EFCF0BF0CC
:101250000A500B10D8B441D05C0E0626040E0722AB
:1012600006C0E9FF07C0EAFFEECF06F0EFCF07F0B8
:101270000650045C026E07500558036E02101CE015
:101280000350800F800F02E1010E025C066A0636F1
:101290000B50800F800F02E1010E0A5C0A6A0A36C9
:1012A00006500A1809E108C0E9FF09C0EAFF02C0B8
:1012B000EEFF03C0EFFF7FD60A015051020DF4503C
:1012C000036EF3CF02F0000E02260A0E032202C0C4
:1012D000E9FF03C0EAFFEE6AEF6A0A014DA343D0BB
:1012E00000500EE100C002F0002A036A510E0226EF
:1012F0000A0E032202C0E9FF03C0EAFF420EEF6EAE
:1013000000C002F0002A036A510E02260A0E0322D0
:10131000640E0A015025066E02C0E9FF03C0EAFF11
:1013200006C0EFFF00C002F0002A036A510E022639
:101330000A0E03220550066E02C0E9FF03C0EAFF51
:1013400006C0EFFF00C002F0002A036A510E022619
:101350000A0E03220450066E02C0E9FF03C0EAFF32
:1013600006C0EFFF28D650CA02F00550E56E0450C3
:10137000E56EE56A0250E56E000EE56E2E0EE56E36
:10138000780EE56ECEEC1BF0070EE12614D6005069
:101390001DE00A014DA31AD000C002F0002A036A22
:1013A000510E02260A0E032202C0E9FF03C0EAFF23
:1013B0000A0EEF6E0050E56E800EE56E0A0EE56EC9
:1013C000510EE56E4DEC16F0040EE1260150E4CF0F
:1013D0000BF0E4CF0AF0E4CF09F0E4CF08F0E4CF5B
:1013E00007F0E4CF06F0E4CF05F0E4CF04F0E4CF5B
:1013F00003F0E4CF02F0E4CF01F0E4CF00F01200FC
:1014000000C0E5FF01C0E5FF02C0E5FF03C0E5FF46
:1014100004C0E5FF05C0E5FF06C0E5FF07C0E5FF26
:1014200008C0E5FF09C0E5FF0AC0E5FF0BC0E5FF06
:101430000CC0E5FF0DC0E5FF0EC0E5FF000E00B0DB
:10144000010F00B2020F00B4040F00B6080F00B87D
:10145000060F00BA020F00BC040F00BE080F01B057
:10146000060F01B2020F01B4040F01B6080F01B854
:10147000060F01BA020F01BC040F01BE080F02B033
:10148000060F02B2020F02B4040F02B6080F02B830
:10149000060F02BA020F02BC040F02BE080F056A53
:1014A000F60F02E3052AFCD70A0F046E055000B8B8
:1014B000010F00BA030F00BC060F00BE020F01B0FF
:1014C000050F01B2010F01B4020F01B6040F01B8FC
:1014D000090F01BA090F01BC080F01BE060F02B0C7
:1014E000030F02B2070F02B4040F02B6080F02B8CE
:1014F000070F02BA050F066AF60F02E3062AFCD7A9
:101500000A0F056E065000BE010F01B0020F01B2B6
:10151000050F01BA010F01BC030F01BE070F02B096
:10152000050F02B4010F02B6020F02B8050F02BA8E
:10153000010F02BC030F02BE060F076AF60F02E39B
:10154000072AFCD70A0F066E075001B4010F01B637
:10155000020F01B8040F01BA080F01BC060F01BE4B
:10156000020F02B0050F02B2010F02B4020F02B661
:10157000040F02B8080F02BA070F02BC040F02BE24
:10158000080F086AF60F02E3082AFCD70A0F076E55
:10159000085001BC010F01BE030F02B0060F02B2DA
:1015A000030F02B4060F02B6020F02B8040F02BA0C
:1015B000090F02BC090F02BE080F096AF60F02E309
:1015C000092AFCD70A0F086E095002B2010F02B4B3
:1015D000020F02B6050F02BC010F02BE030F0A6A1A
:1015E000F60F02E30A2AFCD70A0F096E0A5002B866
:1015F000010F02BA020F02BC040F02BE080F0B6AF1
:10160000F60F02E30B2AFCD70A0F0A6E0B500E6A84
:101610000EE10A5010E1095012E1085014E10750A0
:1016200016E1065018E105501AE104501CD00E2AAC
:10163000300FEE6E0A500E2A300FEE6E09500E2A51
:10164000300FEE6E08500E2A300FEE6E07500E2A45
:10165000300FEE6E06500E2A300FEE6E05500E2A39
:10166000300FEE6E04500E2A300FEE6E0E50E4CFA7
:101670000EF0E4CF0DF0E4CF0CF0E4CF0BF0E4CFAC
:101680000AF0E4CF09F0E4CF08F0E4CF07F0E4CFAC
:1016900006F0E4CF05F0E4CF04F0E4CF03F0E4CFAC
:1016A00002F0E4CF01F0E4CF00F01200800EE56E0E
:1016B000040EE56ED30EE56E65EC1AF0030EE1261E
:1016C000800EE56E040EE56EB30EE56E65EC1AF065
:1016D000030EE126800EE56E040EE56ED50EE56E76
:1016E00065EC1AF0030EE126800EE56E040EE56E41
:1016F000B50EE56E65EC1AF0030EE126800EE56E80
:10170000040EE56ED70EE56E65EC1AF0030EE126C9
:10171000800EE56E040EE56EB70EE56E65EC1AF010
:10172000030EE126800EE56E040EE56ED90EE56E21
:1017300065EC1AF0030EE126800EE56E040EE56EF0
:10174000B90EE56E65EC1AF0030EE126800EE56E2B
:10175000040EE56EDB0EE56E65EC1AF0030EE12675
:10176000800EE56E040EE56EBB0EE56E65EC1AF0BC
:10177000030EE126800EE56E040EE56EDD0EE56ECD
:1017800065EC1AF0030EE126800EE56E040EE56EA0
:10179000BD0EE56E65EC1AF0030EE126800EE56ED7
:1017A000040EE56EDF0EE56E65EC1AF0030EE12621
:1017B000800EE56E040EE56EBF0EE56E65EC1AF068
:1017C000030EE126800EE56E040EE56EE10EE56E79
:1017D00065EC1AF0030EE126800EE56E040EE56E50
:1017E000C10EE56E65EC1AF0030EE126800EE56E83
:1017F000040EE56EE30EE56E65EC1AF0030EE126CD
:10180000800EE56E040EE56EC30EE56E65EC1AF013
:10181000030EE126800EE56E040EE56EE50EE56E24
:1018200065EC1AF0030EE126800EE56E040EE56EFF
:10183000C50EE56E65EC1AF0030EE126800EE56E2E
:10184000040EE56EE70EE56E65EC1AF0030EE12678
:10185000800EE56E040EE56EC70EE56E65EC1AF0BF
:10186000030EE126800EE56E040EE56EE90EE56ED0
:1018700065EC1AF0030EE126800EE56E040EE56EAF
:10188000C90EE56E65EC1AF0030EE126800EE56EDA
:10189000040EE56EEB0EE56E65EC1AF0030EE12624
:1018A000800EE56E040EE56ECB0EE56E65EC1AF06B
:1018B000030EE126800EE56E040EE56EED0EE56E7C
:1018C00065EC1AF0030EE126800EE56E040EE56E5F
:1018D000CD0EE56E65EC1AF0030EE126800EE56E86
:1018E000040EE56EEF0EE56E65EC1AF0030EE126D0
:1018F000800EE56E040EE56ECF0EE56E65EC1AF017
:10190000030EE126800EE56E040EE56EF10EE56E27
:1019100065EC1AF0030EE126800EE56E040EE56E0E
:10192000D10EE56E65EC1AF0030EE126120006EC0E
:1019300000F094928B92C8EC16F09280800E006EAC
:101940000F0E016E0F0E036E380E0026035001229B
:10195000800E026E0F0E036E800E005E0350015A61
:101960000F0E056E380E0226055003220F0E056E6F
:10197000800E025E0550035A02C0E9FF03C0EAFF71
:10198000EFCF02F0028000C0E9FF01C0EAFF02C011
:10199000EFFF000EE56AE56ABAEC19F0E652E6528E
:1019A0009282800E006E0F0E016E0F0E036E380EC7
:1019B000002603500122800E026E0F0E036E800E71
:1019C000005E0350015A0F0E056E380E02260550B8
:1019D00003220F0E056E800E025E0550035A02C0F0
:1019E000E9FF03C0EAFFEFCF02F0028200C0E9FF87
:1019F00001C0EAFF02C0EFFF010EE56EE56EBAEC32
:101A000019F0E652E6529284800E006E0F0E016EBF
:101A10000F0E036E380E002603500122800E026E58
:101A20000F0E036E800E005E0350015A0F0E056EFE
:101A3000380E0226055003220F0E056E800E025E40
:101A40000550035A02C0E9FF03C0EAFFEFCF02F0DE
:101A5000028400C0E9FF01C0EAFF02C0EFFF020EEE
:101A6000E56EE56EBAEC19F0E652E6529486820E07
:101A7000006E0F0E016E0F0E036E380E002603501F
:101A800001220F0E036E800E005E0350015A820E7B
:101A9000026E0F0E036E0F0E056E380E02260550F5
:101AA00003220F0E056E800E025E0550035A02C01F
:101AB000E9FF03C0EAFFEFCF02F0028600C0E9FFB2
:101AC00001C0EAFF02C0EFFF0F0EE56E030EE56EE8
:101AD000BAEC19F0E652E65253EC22F040CA2BFF62
:101AE000A4EC1EF0006EF3CF01F0F4CF02F0E9CFCA
:101AF00003F0880E0026130E0122000E022203229C
:101B0000FCEC12F0D3EC0DF0A4EC1EF0046EF3CF5D
:101B100005F0F4CF06F0E9CF07F00050045E015065
:101B2000055A0250065A0350075A079E3F0E075C9B
:101B300008E1FF0E065C05E1FF0E055C02E1FF0E09
:101B4000045CDEE2A4EC1EF0F3CF05F0F4CF06F067
:101B5000E9CF07F0880F006E130E0520016E000E0E
:101B60000620026E000E0720036EC1EC07F02BCF9B
:101B700004F00F012B070450D8A4C2D740CA2BFF92
:101B80000A01412B41CA04F0E56A0450E56E000EDB
:101B9000E56E430EE56EB40EE56ECEEC1BF0050E61
:101BA000E126AED7120000C0E5FF01C0E5FF02C08C
:101BB000E5FF03C0E5FF04C0E5FF05C0E5FF06C083
:101BC000E5FF07C0E5FF08C0E5FF09C0E5FFC2B2B9
:101BD00004D10A014F51D8B4AFD00A014E51020DC1
:101BE000F450016EF3CF00F0E00E0026000E01224B
:101BF00000C0E9FF01C0EAFFEECF02F0EFCF03F033
:101C000002380F0B046E0338056EF00B051A04261C
:101C100005320432F80E05B405260450025C046E49
:101C200005500358056EC3CF06F0076A0650042618
:101C300007500522C4CF06F00650096E086A085006
:101C400004260950052200C0E9FF01C0EAFF04C0D4
:101C5000EEFF05C0EFFF0A014A51010A01E06AD018
:101C60000A014E51020DF450016EF3CF00F0E00E68
:101C70000024046E000E0120056E04C0E9FF05C0BB
:101C8000EAFFEECF02F0EFCF03F0B30E0026040E12
:101C9000012200C0E9FF01C0EAFFEECF04F0EFCF60
:101CA00005F09C0E0426D8A005060350800FF36EA5
:101CB0000550800FF35C02E10450025C0EE202501A
:101CC000640F046E000E0320056E00C0E9FF01C022
:101CD000EAFF04C0EEFF05C0EFFF0A014E51020DFE
:101CE000F450016EF3CF00F0D30E0026040E012253
:101CF00000C0E9FF01C0EAFFEECF04F0EFCF05F02E
:101D0000640E0426D8B0052A0550800FF36E0350E8
:101D1000800FF35C02E10250045C0CE29C0E022690
:101D2000D8A0030600C0E9FF01C0EAFF02C0EEFF31
:101D300003C0EFFF0A014F6B0A014E2B100E4E5DE0
:101D400001E34E6B0A014E39E8441F0B006E016A35
:101D5000290E00260F0E012200C0E9FF01C0EAFF94
:101D6000EFCF00F0070E4E15016E010E026E000E51
:101D7000036E015006E0E86CD89002360336010F7E
:101D8000FCE3046A0050021604500316025005E1F9
:101D9000035003E1026A022A01D0026A0250D8808D
:101DA000E866D890026A0236025017E0240E0A0153
:101DB0004E25006E016A040E012200C0E9FF01C039
:101DC000EAFFEFCF00F00044E844FC0B016E01286D
:101DD000C26EC282010E0A014F6FE4CF09F0E4CF58
:101DE00008F0E4CF07F0E4CF06F0E4CF05F0E4CF4D
:101DF00004F0E4CF03F0E4CF02F0E4CF01F0E4CF4D
:101E000000F01200D9CFE5FFE1CFD9FF00C0E5FF18
:101E100001C0E5FF02C0E5FF03C0E5FF04C0E5FF28
:101E200005C0E5FF06C0E5FF07C0E5FF08C0E5FF08
:101E300009C0E5FF0AC0E5FF0BC0E5FF020EDBCFDE
:101E400000F0030EDBCF01F0040EDBCF02F0050E35
:101E5000DBCF03F0060EDBCF04F0070EDBCF05F07F
:101E6000080EDBCF06F0090EDBCF07F006C008F046
:101E7000060608500EE006500424086EE86A06BE06
:101E8000E8680520096E08C0E9FF09C0EAFFEF6AAB
:101E9000EDD700500401F76F0150F86F0250F96F51
:101EA0000350FA6FF7C400F0F8C401F0F9C402F06F
:101EB000FAC403F0066A086A096A800E03140A6EFF
:101EC000065007E1085005E1095003E10A50800A75
:101ED00001E012D0039E00500401F76F0150F86F2B
:101EE0000250F96F0350FA6F04C0E9FF05C0EAFF22
:101EF0002D0EEF6E044A052A0401F935FA357E08E5
:101F0000006EF751016EF851026E7F0EF915036EE7
:101F1000066A038E086A096A0A6A0B6A005019E0A9
:101F2000D88000AED8900EE30850082609360A364D
:101F30000B3603BE088001500126023603360636F2
:101F4000002AECD7D8900632033202320132000662
:101F5000E5D7085009100A100B1012E00550E56E85
:101F60000450E56E0B50E56E0A50E56E0950E56EC3
:101F70000850E56E79EC1EF0006E060EE12608D0E2
:101F800004C0E9FF05C0EAFF300EEF6E010E006EDF
:101F900000500426E86A00BEE8680522075028E0E1
:101FA00004C0E9FF05C0EAFF2E0EEF6E002A044AC6
:101FB000052A07501808E56E0550E56E0450E56ED9
:101FC0000650E56E0350E56E0250E56E0150E56E79
:101FD000E6EC1DF0016E070EE126015000260750C9
:101FE0000426E86A052204C0E9FF05C0EAFFEF6A9B
:101FF0000050E4CF0BF0E4CF0AF0E4CF09F0E4CFD7
:1020000008F0E4CF07F0E4CF06F0E4CF05F0E4CF2A
:1020100004F0E4CF03F0E4CF02F0E4CF01F0E4CF2A
:1020200000F0E4CFD9FF1200D9CFE5FFE1CFD9FF0F
:1020300000C0E5FF01C0E5FF02C0E5FF03C0E5FF0A
:1020400004C0E5FF05C0E5FF06C0E5FF07C0E5FFEA
:10205000020EDBCF00F0030EDBCF01F0040EDBCF6E
:1020600002F0050EDBCF03F0060EDBCF04F0070E07
:10207000DBCF05F0080EDBCF06F0090EDBCF07F053
:1020800000500401816F0150826F0250836F035032
:10209000846F04500401856F0550866F0650876F6A
:1020A0000750886F0401815104018703F4CF01F0C8
:1020B000F3CF00F0005004018C6F01508D6F0401CC
:1020C000815104018503F4CF01F0F3CF00F00050FB
:1020D00004018A6F01508B6F040184510401850350
:1020E000F3CF00F004018D51002600508D6F0401E4
:1020F000835104018603F3CF00F004018D510026C3
:1021000000508D6F0401835104018503F4CF01F069
:10211000F3CF00F004018C5100268D5101220050B4
:102120008C6F01508D6F0401825104018603F4CF3E
:1021300001F0F3CF00F004018C5100268D510122F3
:1021400000508C6F01508D6F040182510401870390
:10215000F3CF00F000500401916F0401825104019B
:102160008503F4CF01F0F3CF00F0005004018F6F2E
:102170000150906F0401815104018803F3CF00F0F6
:1021800000500401F66F0401815104018603F4CF6D
:1021900001F0F3CF00F000500401F46F0150F56F2F
:1021A00004018E6B0401F36B04018E5104018A2536
:1021B000006E04018F5104018B21016E04019051C6
:1021C00004018C21026E0401915104018D21036EE2
:1021D00000508A6F01508B6F02508C6F03508D6FCF
:1021E0000401F35104018A25006E0401F451040135
:1021F0008B21016E0401F55104018C21026E040152
:10220000F65104018D21036E03C0E9FF02C0F4FF03
:1022100001C0F3FF0050E4CF07F0E4CF06F0E4CFB5
:1022200005F0E4CF04F0E4CF03F0E4CF02F0E4CF14
:1022300001F0E4CF00F0E4CFD9FF120000C0E5FFC9
:1022400001C0E5FF0A014751D8B4F5D09DA81DD0C3
:102250009EA81BD00F0136510F01331905E1F5EC93
:1022600021F00F01336BE7D0000E0F013625006E11
:10227000016A0F0E012200C0E9FF01C0EAFFEFCFA3
:102280002FFF362B2FCFADFFD6D09EAAD4D0ABA236
:1022900005D00F013481F5EC21F0CDD0ABA405D0F1
:1022A0000F013483F5EC21F0C6D0ABA03ED0AECF09
:1022B0002FFF800E0A0148110F012F1904E10F01B1
:1022C0003489AB96B8D00F012F5104E02F510A0189
:1022D000481927E10F013499AB960F012F5103E004
:1022E0000F01349702D00F0134872FCF60FA31CF1E
:1022F00061FA0F0131050A01626F600E0A01612562
:10230000006E016A000E012200C0E9FF01C0EAFF71
:102310002FCFEFFF612B6151800A02E10A01616B4F
:102320008AD00F013499AB8686D0AECF2FFF0F0134
:1023300034A919D0800E0A0148110F012F1911E19B
:102340008B909D9AAB980F01335104E1AD6AF5EC87
:1023500021F007D000CFADFF010E0F01366F9D8831
:102360006AD0AB8668D00F012F510A0160270A019D
:1023700061510A0162191BE10A0160510CE161CA55
:1023800031FF0F0134B712D08B909D9AAB98AD6A94
:10239000F5EC21F00BD00F01348534B707D08B90CA
:1023A0009D9AAB98010EAD6EF5EC21F044D00A0178
:1023B00061510F01321908E10F0132510F0131193A
:1023C00003E0F5EC21F037D031CF00F0016A004A8C
:1023D000012AE56A800EE56E0150E56E0050E56E5B
:1023E000B9EC17F0006E040EE12600500F01306FBB
:1023F0000A0161190CE11F0E0F012F150A01626F0E
:10240000622B622B0F0131510A016227629F61CA60
:1024100000F00A01612B016A600E0026000E012205
:1024200000C0E9FF01C0EAFF2FCFEFFF6151800A32
:1024300002E10A01616BE4CF01F0E4CF00F0120089
:10244000D9CFE5FFE1CFD9FF00C0E5FF01C0E5FF2F
:1024500002C0E5FF03C0E5FF04C0E5FF05C0E5FFDE
:1024600006C0E5FF07C0E5FF08C0E5FF09C0E5FFBE
:102470000AC0E5FF0BC0E5FF0CC0E5FF0DC0E5FF9E
:102480000EC0E5FF0FC0E5FF020EDBCF00F0030E2C
:10249000DBCF01F0040EDBCF02F0050EDBCF03F043
:1024A000060EDBCF04F0070EDBCF05F0080EDBCF06
:1024B00006F0200E076E086A06C009F00A6A0B6A69
:1024C0000C6AE56AE56AE56A0950E56E0350E56E57
:1024D0000250E56E0150E56E0050E56E8FEC13F092
:1024E0000D6E080EE126300E0D263A0E0D5C05E34A
:1024F0000D500E6E270E0E240D6EFF0E07260822BD
:10250000200E07240E6E0A0E08200F6E0EC0E9FF83
:102510000FC0EAFF0DC0EFFF0C50E56E0B50E56EEB
:102520000A50E56E0950E56E0350E56E0250E56E07
:102530000150E56E0050E56EAFEC14F0006EF3CF85
:1025400001F0F4CF02F0E9CF03F0080EE1260050CD
:10255000011002100310D8A4AFD707C000F008C0C4
:1025600001F004C002F005C003F000C004F001C097
:1025700005F0004A012A200E04260A0E052204C096
:10258000E9FF05C0EAFFEFCF04F002C0E9FF03C096
:10259000EAFF04C0EFFF024A032A000E015C02E1D9
:1025A000200E005CE2E302C0E9FF03C0EAFF000E78
:1025B000EF6AE4CF0FF0E4CF0EF0E4CF0DF0E4CFFC
:1025C0000CF0E4CF0BF0E4CF0AF0E4CF09F0E4CF55
:1025D00008F0E4CF07F0E4CF06F0E4CF05F0E4CF55
:1025E00004F0E4CF03F0E4CF02F0E4CF01F0E4CF55
:1025F00000F0E4CFD9FF120000C0E5FF01C0E5FF05
:1026000002C0E5FF03C0E5FF04C0E5FF0F01325142
:102610000F01311901E165D032CF00F0002A009E90
:10262000600E0024016E026A000E022201C0E9FF62
:1026300002C0EAFFEFCF64FA1F0E0A01641732CF1F
:1026400063FA64510A016327632B632B639FCEEC0B
:102650001EF0016E015003E1016A012A01D0016AF6
:10266000CEEC1EF00A01646F800E6415026E1F0E20
:102670006415036E03C004F003C064FA045003E160
:1026800031CF32FF41D0015021E002501CE0CEECAE
:102690001EF0006E0A0164070050420A03E190EC4C
:1026A00022F01DD000504E0A03E14CEC1BF017D075
:1026B0000050460A03E129EC22F011D00050490AEB
:1026C0000EE1FF000CD08FEC22F009D032CF65FA7A
:1026D000025003E04DEC1CF002D03AEC20F063CA4B
:1026E00032FF0A0144510A01451906E00F01335136
:1026F00003E13BEC15F008D08BB006D00F0133514D
:1027000003E1ACB2F5EC21F0E4CF04F0E4CF03F048
:10271000E4CF02F0E4CF01F0E4CF00F01200D9CF13
:10272000E5FFE1CFD9FF00C0E5FF01C0E5FF02C032
:10273000E5FF03C0E5FF04C0E5FF05C0E5FF06C0F7
:10274000E5FF07C0E5FF08C0E5FF09C0E5FF0AC0D7
:10275000E5FF020EDBCF00F0030EDBCF01F0040E2D
:10276000DBCF02F0050EDBCF03F0060EDBCF04F06B
:10277000070EDBCF05F0080EDBCF06F0090EDBCF2E
:1027800007F0086A096A0750800BE8440A6E0A508D
:102790001BE1045004260536063607360750035C55
:1027A00008E10650025C05E10550015C02E10450BD
:1027B000005C06E2D890073206320532043204D0BB
:1027C000092A09C008F0DFD70750035C08E106506A
:1027D000025C05E10550015C02E10450005C08E385
:1027E0000450005E0550015A0650025A0750035A21
:1027F000D890073206320532043208C009F00806C4
:102800000950E2E103C0E9FF02C0F4FF01C0F3FF99
:102810000050E4CF0AF0E4CF09F0E4CF08F0E4CFB1
:1028200007F0E4CF06F0E4CF05F0E4CF04F0E4CF06
:1028300003F0E4CF02F0E4CF01F0E4CF00F0E4CF06
:10284000D9FF120000C0E5FF01C0E5FF03C0E5FFAE
:1028500004C0E5FF05C0E5FF06C0E5FF07C0E5FFD2
:1028600008C0E5FF09C0E5FF0AC0E5FF0BC0E5FFB2
:10287000FEC400F0FFC401F00401FE3F01D0FF2BB5
:102880000050E56EE7EC21F0E652076E046A056A37
:10289000066AFEC400F0FFC401F00401FE3F01D04F
:1028A000FF2B0050E56EE7EC21F0E6520B6A0A6E52
:1028B000086A0850041205120A5006120B5007123B
:1028C000FEC400F0FFC401F00401FE3F01D0FF2B65
:1028D0000050E56EE7EC21F0E652036E006A03C09B
:1028E00001F0E86A03BEFF0E086E096E0050041284
:1028F000015005120850061209500712FEC400F0DC
:10290000FFC401F00401FE3F01D0FF2B0050E56E33
:10291000E7EC21F0E652016A04120150051206129A
:10292000071207C0E9FF06C0F4FF05C0F3FF04501B
:10293000E4CF0BF0E4CF0AF0E4CF09F0E4CF08F0E5
:10294000E4CF07F0E4CF06F0E4CF05F0E4CF04F0E5
:10295000E4CF03F0E4CF01F0E4CF00F01200D9CFD0
:10296000E5FFE1CFD9FF00C0E5FF01C0E5FF02C0F0
:10297000E5FF03C0E5FF04C0E5FF05C0E5FF06C0B5
:10298000E5FF07C0E5FF08C0E5FF09C0E5FF0AC095
:10299000E5FF0BC0E5FF0CC0E5FF0DC0E5FF020E33
:1029A000DBCF00F0030EDBCF01F0040EDBCF02F033
:1029B000050EDBCF03F0060EDBCF04F0070EDBCFF6
:1029C00005F0080EDBCF06F0090EDBCF07F0086A32
:1029D000096A0A6A0B6A200E0C6E0350800BE844E9
:1029E0000D6E0050002601360236033608500826C8
:1029F00009360A360B360D50D8A4088007500B5CF8
:102A000008E106500A5C05E10550095C02E104504A
:102A1000085C09E30450085E0550095A06500A5A3A
:102A200007500B5A00800C2ED8D703C0E9FF02C014
:102A3000F4FF01C0F3FF0050E4CF0DF0E4CF0CF041
:102A4000E4CF0BF0E4CF0AF0E4CF09F0E4CF08F0D4
:102A5000E4CF07F0E4CF06F0E4CF05F0E4CF04F0D4
:102A6000E4CF03F0E4CF02F0E4CF01F0E4CF00F0D4
:102A7000E4CFD9FF120000C0E5FF01C0E5FF02C0AE
:102A8000E5FF03C0E5FFACA276D0FDEC1FF0006EC1
:102A9000005005E10A01456B0A01446B6CD045CA40
:102AA00001F000500126FDEC1FF0026E00060250FE
:102AB000230A1FE1010E005CD8A05BD0FDEC1FF0E3
:102AC000026E690A03E149EC1EF053D00250720A0B
:102AD00003E1F5EC21F04DD00250730A01E049D03A
:102AE0008B80AB869D8A9D98AE50AE50AB98AB88DC
:102AF00040D00250430A05E00250420A01E039D0BA
:102B000001D0008E00C035FF00500F01006F010E94
:102B10000F01366F0A014551011814E0FDEC1FF05A
:102B2000026E0F013527000E0F013625006E036A75
:102B30000F0E032200C0E9FF03C0EAFF02C0EFFF4F
:102B4000362BE8D7000E0F013625006E026A0F0EF5
:102B500002220F01351D036E032A00C0E9FF02C0E7
:102B6000EAFF03C0EFFF0F01362B36CF33FF0F0113
:102B70002D6B01C045FAE4CF03F0E4CF02F0E4CFBF
:102B800001F0E4CF00F01200D9CFE5FFE1CFD9FF8B
:102B900000C0E5FF01C0E5FF02C0E5FF03C0E5FF9F
:102BA00004C0E5FF05C0E5FF06C0E5FF07C0E5FF7F
:102BB000020EDBCF00F0030EDBCF01F0040EDBCF03
:102BC00002F0050EDBCF03F002C006F00650046EE3
:102BD000800A33E100C0E9FF01C0F3FF025074EC4A
:102BE00020F0056EF3CF06F0F4CF07F003C0E5FF49
:102BF00005C0E9FF06C0F3FF075034EC22F000C027
:102C0000E9FF01C0F3FF025074EC20F0056EF3CF32
:102C100006F0F4CF07F0052A02E3064A072A05C0AA
:102C2000E5FF06C0F4FF07C0F6FF00C0E9FF01C0E2
:102C3000F3FF0250CAEC21F01DD004AA1BD0047A85
:102C4000045004E103506CEC22F014D00450010A4B
:102C500004E1035002EC00F00DD004500F0A04E12F
:102C6000035018EC1EF006D004500E0A03E1035086
:102C70007CEC22F0E4CF07F0E4CF06F0E4CF05F0DF
:102C8000E4CF04F0E4CF03F0E4CF02F0E4CF01F0AE
:102C9000E4CF00F0E4CFD9FF1200D9CFE5FFE1CFB8
:102CA000D9FF00C0E5FF01C0E5FF02C0E5FF03C09A
:102CB000E5FF04C0E5FF05C0E5FF06C0E5FF07C06E
:102CC000E5FF020EDBCF00F0030EDBCF01F0040EB8
:102CD000DBCF02F0050EDBCF03F045CA46FA0A014E
:102CE00044510A01465F460703C004F0056A030E1B
:102CF0000426D8B0052A46CA06F0076A0750800F96
:102D0000F36E0550800FF35C02E10450065C02E2B2
:102D1000E8682BD0020E035C02E2E86A26D00306C4
:102D20000350E56EC7EC1CF0E652046A0350045CE5
:102D300014E204500024056EE86A0120066EE86A79
:102D4000022005C0E9FF06C0F3FF98EC21F0042A39
:102D5000E56EC7EC1CF0E652E9D745CA46FA0A010F
:102D600044510A01465F4607E86AE4CF07F0E4CF22
:102D700006F0E4CF05F0E4CF04F0E4CF03F0E4CFB5
:102D800002F0E4CF01F0E4CF00F0E4CFD9FF12006D
:102D900000C0E5FF01C0E5FF02C0E5FF03C0E5FF9D
:102DA00004C0E5FF006A290E0024016E026A0F0EBE
:102DB000022201C0E9FF02C0EAFFEF6A002A020E08
:102DC000005CF1E3006A016A026AE00E0124036E0E
:102DD000000E0220046E03C0E9FF04C0EAFFEE6AA1
:102DE000EF6A5C0E0124036E040E0220046E03C021
:102DF000E9FF04C0EAFFEE6AEF6A930E0124036E56
:102E0000040E0220046E03C0E9FF04C0EAFFEE6A6C
:102E1000EF6AB30E0124036E040E0220046E03C099
:102E2000E9FF04C0EAFFEE6AEF6AD30E0124036EE5
:102E3000040E0220046E03C0E9FF04C0EAFFEE683E
:102E40007F0EEF6E020E0126D8B0022A002A100E65
:102E5000005CD8A0BAD7AF0EC06EC16A010EC26EB8
:102E6000C282E4CF04F0E4CF03F0E4CF02F0E4CF79
:102E700001F0E4CF00F0120043204120256420251A
:102E8000640A0000D9CFE5FFE1CFD9FF00C0E5FF1C
:102E900001C0E5FF02C0E5FF03C0E5FF04C0E5FF98
:102EA00005C0E5FF020EDBCF00F0030EDBCF01F023
:102EB000040EDBCF02F00050020DF450036EF3CF8E
:102EC00000F05C0E0024046E040E0320056E04C0A6
:102ED000E9FF05C0EAFF01C0EEFF02C0EFFF930E5D
:102EE0000024046E040E0320056E04C0E9FF05C033
:102EF000EAFFEECF04F0EFCF05F00150045C016E65
:102F000002500558026E000E00260A0E032200C071
:102F1000E9FF03C0EAFF01C0EEFF02C0EFFFD88067
:102F200002AED89004E3021E016CD8B4022A02500B
:102F3000800F800F02E1030E015C02E2016A026A67
:102F40000150021007E100C0E9FF03C0EAFF000ED4
:102F5000EE6AEF6AE4CF05F0E4CF04F0E4CF03F0CB
:102F6000E4CF02F0E4CF01F0E4CF00F0E4CFD9FFEA
:102F70001200D9CFE5FFE1CFD9FF00C0E5FF01C0C6
:102F8000E5FF02C0E5FF03C0E5FF04C0E5FF05C0A3
:102F9000E5FF06C0E5FF020EDBCF00F0030EDBCF3E
:102FA00001F0040EDBCF02F0050EDBCF03F0D8807A
:102FB00001AED890046A0436045007E0011C066E86
:102FC000001C056E054A062A04D000C005F001C0A9
:102FD00006F0D88003AED89007E3031C016E021CF4
:102FE000006E004A012A04D002C000F003C001F0C4
:102FF0000150E56E0050E56E0650E56E0550E56E39
:103000005DEC19F0006EF3CF01F0040EE1260450E0
:103010000AE0011C036E001C026E024A032A03C070
:10302000F3FF025003D001C0F3FF0050E4CF06F0DD
:10303000E4CF05F0E4CF04F0E4CF03F0E4CF02F0F6
:10304000E4CF01F0E4CF00F0E4CFD9FF1200D9CFF4
:10305000E5FFE1CFD9FF00C0E5FF01C0E5FF02C0F9
:10306000E5FF03C0E5FF04C0E5FF05C0E5FF020E74
:10307000DBCF00F0030EDBCF01F0040EDBCF02F05C
:10308000050EDBCF03F0FEC404F0FFC405F004011D
:10309000FE3F01D0FF2B0350E56E0450E56E1FECA0
:1030A0001FF0E652E652FEC404F0FFC405F004012E
:1030B000FE3F01D0FF2B0250056EE56E0450E56E19
:1030C0001FEC1FF0E652E652FEC404F0FFC405F008
:1030D0000401FE3F01D0FF2B0150056EE56E045048
:1030E000E56E1FEC1FF0E652E652FEC404F0FFC48A
:1030F00005F00401FE3F01D0FF2B0050E56E0450A7
:10310000E56E1FEC1FF0E652E652E4CF05F0E4CF87
:1031100004F0E4CF03F0E4CF02F0E4CF01F0E4CF19
:1031200000F0E4CFD9FF1200D9CFE5FFE1CFD9FFFE
:1031300000C0E5FF01C0E5FF02C0E5FF03C0E5FFF9
:1031400004C0E5FF05C0E5FF06C0E5FF020EDBCFCA
:1031500000F0030EDBCF01F0040EDBCF02F00F0115
:103160002C5119E122EC14F0036EF3CF04F0F4CFEC
:1031700005F0E9CF06F003C0E5FF04C0F4FF05C089
:10318000F6FF06C0F7FF00C0E9FF01C0F3FF0250E1
:10319000A9EC21F01ED00F012C51010A1AE100C048
:1031A000E9FF01C0F3FF0250DDEC1FF0006EF3CF2A
:1031B00001F0F4CF02F0E9CF03F00350E56E0250C6
:1031C000E56E0150E56E0050E56E27EC18F0040E38
:1031D000E126E4CF06F0E4CF05F0E4CF04F0E4CF3D
:1031E00003F0E4CF02F0E4CF01F0E4CF00F0E4CF4D
:1031F000D9FF1200D9CFE5FFE1CFD9FF00C0E5FF2D
:1032000001C0E5FF02C0E5FF03C0E5FF04C0E5FF24
:1032100005C0E5FF06C0E5FF020EDBCF00F0030EA0
:10322000DBCF01F0040EDBCF02F0050EDBCF03F0A5
:10323000060EDBCF04F0070EDBCF05F0080EDBCF68
:1032400006F0D88003AED89015E306500A0A12E1C2
:1032500004C0E9FF05C0EAFF2D0EEF6E044A052AFF
:10326000031E021E011E006C05E1012A03E1022A71
:10327000D8B4032A0650E56E0550E56E0450E56E9D
:103280000350E56E0250E56E0150E56E0050E56EAC
:1032900020EC12F0070EE126E4CF06F0E4CF05F0B3
:1032A000E4CF04F0E4CF03F0E4CF02F0E4CF01F088
:1032B000E4CF00F0E4CFD9FF1200D9CFE5FFE1CF92
:1032C000D9FF00C0E5FF01C0E5FF02C0E5FF03C074
:1032D000E5FF04C0E5FF05C0E5FF06C0E5FF020EFF
:1032E000DBCF00F0030EDBCF01F0040EDBCF02F0EA
:1032F000050EDBCF03F0046A056A0350800BE84437
:10330000066E065011E10250022603360350015C9E
:1033100002E10250005C04E2D8900332023204D091
:10332000052A05C004F0E9D70350015C02E1025010
:10333000005C04E30250005E0350015AD89003324F
:10334000023204C005F004060550EEE101C0F3FFAF
:103350000050E4CF06F0E4CF05F0E4CF04F0E4CF72
:1033600003F0E4CF02F0E4CF01F0E4CF00F0E4CFCB
:10337000D9FF1200D9CFE5FFE1CFD9FF00C0E5FFAB
:1033800001C0E5FF02C0E5FF03C0E5FF04C0E5FFA3
:1033900005C0E5FF06C0E5FF020EDBCF00F0030E1F
:1033A000DBCF01F00038E8441F0B026E036A290EE0
:1033B00002260F0E032202C0E9FF03C0EAFFEFCF8F
:1033C00004F0070E0014056E010E066E055005E0B0
:1033D000E86CD8900636010FFDE30650041202C0D7
:1033E000E9FF03C0EAFF04C0EFFF026A240E0026D3
:1033F000040E022200C0E9FF02C0EAFF01C0EFFF95
:10340000E4CF06F0E4CF05F0E4CF04F0E4CF03F01E
:10341000E4CF02F0E4CF01F0E4CF00F0E4CFD9FF35
:10342000120000C0E5FF01C0E5FF02C0E5FF03C0D8
:10343000E5FF32CF00F0016A65CA02F0036A02506C
:10344000005E0350015AE56A800EE56E0150E56E9C
:103450000050E56EB9EC17F0006E040EE126000690
:1034600065CA01F0430E18EC1EF0200E18EC1EF099
:103470000050800F7F0F20E3600E0124026E036A6C
:10348000000E032202C0E9FF03C0EAFFEFCF02F003
:10349000E56A0250E56E000EE56E440EE56E020E22
:1034A000E56ECEEC1BF0050EE126012A0150800AE4
:1034B00001E1016A0006DCD7E4CF03F0E4CF02F0BB
:1034C000E4CF01F0E4CF00F01200D9CFE5FFE1CF67
:1034D000D9FF00C0E5FF01C0E5FF02C0E5FF03C062
:1034E000E5FF04C0E5FF020EDBCF00F0030EDBCFEB
:1034F00001F0040EDBCF02F00F012C5111E1B2EC10
:103500001DF0036EF3CF04F003C0E5FF04C0F4FF29
:1035100000C0E9FF01C0F3FF025011EC22F016D009
:103520000F012C51010A12E100C0E9FF01C0F3FFB5
:10353000025033EC21F0006EF3CF01F00150E56E44
:103540000050E56E8AEC1CF0E652E652E4CF04F03F
:10355000E4CF03F0E4CF02F0E4CF01F0E4CF00F0D9
:10356000E4CFD9FF1200CA0EF66E440EF76E000EBD
:10357000F86E0900F550056E0900F550066E04E17D
:10358000056702D000EF1BF00900F550006E09003E
:10359000F550016E0900F550026E09000900F55062
:1035A000E96E0900F550EA6E090009000900F550BE
:1035B000036E0900F550046E09000900F6CF07F00C
:1035C000F7CF08F0F8CF09F000C0F6FF01C0F7FF11
:1035D00002C0F8FF035002E1045007E00900F55073
:1035E000EE6E0306F8E20406F9D707C0F6FF08C03E
:1035F000F7FF09C0F8FF050601E20606BFEF1AF063
:103600001200D9CFE5FFE1CFD9FF00C0E5FF01C02F
:10361000E5FF02C0E5FF03C0E5FF04C0E5FF05C00C
:10362000E5FF020EDBCF00F00050010A24E1016A41
:10363000026A036AB30E0224046E040E0320056EB0
:1036400004C0E9FF05C0EAFFEE687F0EEF6ED30EFF
:103650000224046E040E0320056E04C0E9FF05C0B9
:10366000EAFFEE6AEF6A020E0226D8B0032A012AA8
:10367000100E015CDFE300C04AFAE4CF05F0E4CFAE
:1036800004F0E4CF03F0E4CF02F0E4CF01F0E4CFA4
:1036900000F0E4CFD9FF120000C0E5FF01C0E5FF54
:1036A00002C0E5FFCEEC1EF0006ECEEC1EF0016E07
:1036B0000050026ED00E0224006E0A0E005C05E37C
:1036C0000050026EF90E0224006E0150026ED00E00
:1036D0000224016E0A0E015C05E30150026EF90E30
:1036E0000224016E080E005C12E2100E015CD8B0DC
:1036F0000ED00038F00B0124006E78EC1DF0016E46
:10370000015005E10050E56EA9EC20F0E652E4CF4F
:1037100002F0E4CF01F0E4CF00F01200D9CFE5FFD2
:10372000E1CFD9FF00C0E5FF01C0E5FF02C0E5FF22
:1037300003C0E5FF04C0E5FF020EDBCF00F0003858
:10374000E8441F0B016E026A290E01260F0E0222A9
:1037500001C0E9FF02C0EAFFEFCF03F0070E001639
:10376000010E046E005005E0E86CD8900436010F9D
:10377000FDE3041C031601C0E9FF02C0EAFF03C019
:10378000EFFFE4CF04F0E4CF03F0E4CF02F0E4CFA6
:1037900001F0E4CF00F0E4CFD9FF1200D9CFE5FF6C
:1037A000E1CFD9FF00C0E5FF01C0E5FF02C0E5FFA2
:1037B000020ED924006E000EDA20016E800E026E19
:1037C000030E0026000E012202220250E56E015077
:1037D000E56E0050E56E040EDBCFE5FF030EDBCF98
:1037E000E5FF020EDBCFE5FF0401FD51E56EFC5164
:1037F000E56EFB51E56E0EEC00F0006EF3CF01F0CC
:10380000090EE12601C0F3FF0050E4CF02F0E4CF3F
:1038100001F0E4CF00F0E4CFD9FF1200D9CFE5FFEB
:10382000E1CFD9FF00C0E5FF01C0E5FF02C0E5FF21
:1038300003C0E5FF020EDBCF00F0030EDBCF01F08B
:10384000040EDBCF02F00F012C510DE107EC21F04B
:10385000036E03C0E5FF00C0E9FF01C0F3FF0250A3
:1038600034EC22F00FD00F012C51010A0BE100C003
:10387000E9FF01C0F3FF025098EC21F0E56E94ECF3
:103880001FF0E652E4CF03F0E4CF02F0E4CF01F002
:10389000E4CF00F0E4CFD9FF120000C0E5FF01C083
:1038A000E5FFCEEC1EF0006E4C0A08E1CEEC1EF0F7
:1038B000300A02E08B8229D08B9227D00050450A33
:1038C00024E1000EE56E430EE56EC80EE56ECEEC0B
:1038D0001BF0030EE12676EC22F0006E00C001F032
:1038E000000601500FE0CEEC1EF0E56AE56E000E1A
:1038F000E56E430EE56ECA0EE56ECEEC1BF0050ECE
:10390000E126ECD70A0E18EC1EF0E4CF01F0E4CF6C
:1039100000F01200D9CFE5FFE1CFD9FF00C0E5FFED
:1039200001C0E5FF02C0E5FF03C0E5FF020EDBCFEB
:1039300000F0030EDBCF01F0FEC402F0FFC403F081
:103940000401FE3F01D0FF2B0150E56E0250E56EF1
:103950001FEC1FF0E652E652FEC402F0FFC403F073
:103960000401FE3F01D0FF2B0050E56E0250E56ED2
:103970001FEC1FF0E652E652E4CF03F0E4CF02F072
:10398000E4CF01F0E4CF00F0E4CFD9FF1200D9CFAB
:10399000E5FFE1CFD9FF00C0E5FF01C0E5FF02C0B0
:1039A000E5FF03C0E5FF04C0E5FF020EDBCF00F03A
:1039B00044CA01F0026A014A022A45CA03F0046AB5
:1039C0000150031803E10250041801E001D00ED0A9
:1039D000000E0A014425016E026A070E022201C090
:1039E000E9FF02C0EAFF00C0EFFF442BE4CF04F080
:1039F000E4CF03F0E4CF02F0E4CF01F0E4CF00F035
:103A0000E4CFD9FF1200D9CFE5FFE1CFD9FF00C045
:103A1000E5FF01C0E5FF02C0E5FF03C0E5FF020EC0
:103A2000DBCF00F0016A65CA02F0036A025000268B
:103A300003500122E56A800EE56E0150E56E0050EC
:103A4000E56EB9EC17F0006EF3CF01F0040EE1263D
:103A5000600E0026000E012200C0E9FF01C0EAFF4F
:103A6000EFCF00F00050E4CF03F0E4CF02F0E4CF5A
:103A700001F0E4CF00F0E4CFD9FF1200F3CFE5FF6F
:103A8000F4CFE5FFE9CFE5FFEACFE5FFFACFE5FFA9
:103A9000FBCFE5FF0A0142510401366F0A01435191
:103AA0000401376FD650346FD750356FF2A411D060
:103AB0000A01423F01D0432BF2940A014251040112
:103AC000366F0A0143510401376FD650346FD75017
:103AD000356FD9EC21F0E4CFFBFFE4CFFAFFE4CF60
:103AE000EAFFE4CFE9FFE4CFF4FFE4CFF3FF1100F6
:103AF00000C0E5FF01C0E5FF02C0E5FF010E006E5A
:103B0000CEEC1EF0016E01C002F0015023E0005027
:103B1000E56EE7EC21F0016EE652015010E10A0E6D
:103B2000005C0BE20A0E006EE56EE7EC21F0016E20
:103B3000E652015004E1E8680ED0E8680CD001506C
:103B4000021802E0E86807D0002A1B0E005CD8E3E8
:103B5000E86801D0E86AE4CF02F0E4CF01F0E4CFF6
:103B600000F0120000C0E5FF01C0E5FF02C0E5FF64
:103B700003C0E5FFFEC400F0FFC401F00401FE3FF6
:103B800001D0FF2B0050E56EE7EC21F0E652036E0A
:103B9000026AFEC400F0FFC401F00401FE3F01D040
:103BA000FF2B0050E56EE7EC21F0E652016A0212AD
:103BB0000150031203C0F3FF0250E4CF03F0E4CF3F
:103BC00002F0E4CF01F0E4CF00F01200D9CFE5FF1E
:103BD000E1CFD9FF00C0E5FF01C0E5FF02C0E5FF6E
:103BE00003C0E5FF04C0E5FF020EDBCF00F0030ECB
:103BF000DBCF01F0040EDBCF02F0050EDBCF03F0CC
:103C0000060EDBCFE9FF070EDBCFEAFF080EDBCFA6
:103C100004F040EC04F0E4CF04F0E4CF03F0E4CF90
:103C200002F0E4CF01F0E4CF00F0E4CFD9FF1200BE
:103C300000C0E5FF01C0E5FF02C0E5FF006E390EE0
:103C40000A014925016E026A040E022201C0E9FF41
:103C500002C0EAFF00C0EFFF220E495D01E2492BDE
:103C600000500A0A0FE10A014951E56E800EE56E27
:103C7000040EE56E390EE56E4DEC16F0040EE126ED
:103C80000A01496BE4CF02F0E4CF01F0E4CF00F089
:103C900012000A01446B0A01456B0A0146698B80D8
:103CA0009490B06A3F0EAF6EB886AC8AAC84AC8C90
:103CB000AC90AB8CAB8E0F01346B0F012E6B0F01F0
:103CC000316B0F01326B0F01336B000EE56AE7ECCD
:103CD00021F00A01486FE6529F989F9A010E0A014F
:103CE000476F0401FB6BFC6B2F0EFD6FF5EC21F0B1
:103CF0001200D9CFE5FFE1CFD9FF00C0E5FF01C039
:103D0000E5FF02C0E5FF03C0E5FF020EDBCF00F0D8
:103D1000030EDBCF01F0040EDBCF02F0050EDBCF8C
:103D200003F0060EDBCFE9FF070EDBCFEAFF00EC66
:103D30000AF0E4CF03F0E4CF02F0E4CF01F0E4CFE7
:103D400000F0E4CFD9FF12000A01425104017E6F56
:103D50000A01435104017F6FD6507C6FD7507D6FAD
:103D60007E510A01421905E104017F510A014319FC
:103D70000CE00A01425104017E6F0A014351040123
:103D80007F6FD6507C6FD7507D6F7FC4E9FF7EC4B4
:103D9000F4FF7DC4F3FF04017C51120000C0E5FF75
:103DA00001C0E5FF0F0132510A01631905E00F015F
:103DB00032510F01311902E1E86A15D032CF00F01B
:103DC0000F01322B016A600E0026000E012200C096
:103DD000E9FF01C0EAFFEFCF00F03251800A02E1B3
:103DE0000F01326B0050E4CF01F0E4CF00F012007D
:103DF000D8CFE5FFE0CFE5FFE56EF3CFE5FFF4CFE9
:103E0000E5FFE9CFE5FFEACFE5FFFACFE5FFFBCF1E
:103E1000E5FF1EEC11F091EC22F0E4CFFBFFE4CFC4
:103E2000FAFFE4CFEAFFE4CFE9FFE4CFF4FFE4CF09
:103E3000F3FFE450E4CFE0FFE4CFD8FF1000D9CF88
:103E4000E5FFE1CFD9FF00C0E5FF020EDBCF00F0B8
:103E5000030EDBCFA8FF00C0A9FFA69EA69CA684E8
:103E6000F29EF29C550EA76EAA0EA76EA682A6A27F
:103E700002D00000FCD7E86AA6B6E82AA694F28E23
:103E8000F28CE4CF00F0E4CFD9FF1200D9CFE5FFE8
:103E9000E1CFD9FF00C0E5FF01C0E5FF020EDBCF97
:103EA00000F00050020DF450016EF3CF00F0000E50
:103EB00000260A0E012200C0E9FF01C0EAFFEECF92
:103EC00000F0EFCF01F001C0F3FF0050E4CF01F0AC
:103ED000E4CF00F0E4CFD9FF1200D9CFE5FFE1CF66
:103EE000D9FF00C0E5FF01C0E5FF020EDBCF00F007
:103EF0000050020DF450016EF3CF00F0E00E0026EA
:103F0000000E012200C0E9FF01C0EAFFEECF00F081
:103F1000EFCF01F001C0F3FF0050E4CF01F0E4CF98
:103F200000F0E4CFD9FF1200D9CFE5FFE1CFD9FFF0
:103F300000C0E5FF01C0E5FF02C0E5FF020EDBCFD8
:103F400000F0FEC401F0FFC402F00401FE3F01D006
:103F5000FF2B0050E56E0150E56E1FEC1FF0E6529E
:103F6000E652E4CF02F0E4CF01F0E4CF00F0E4CF7A
:103F7000D9FF120000C0E5FF70EC22F00401896B4C
:103F8000806B8983006A89B3002A0050010BE844E2
:103F9000F46E8051FD0BF410806FD58ED59CD59AB0
:103FA000D588D596D594D582D580F28AF184D08EE5
:103FB000F28EF28CE4CF00F01200E8AE0AD0F3CF1C
:103FC000EAFFEE50EECFF3FFEECFF4FFEECFE9FFC6
:103FD0001200E8BC89EF22F0E9CFF6FFF3CFF7FF3C
:103FE000F86E0900F5500900F5CFF3FF0900F5CF91
:103FF000F4FF0900F5CFE9FF120000C0E5FF01C0A2
:10400000E5FF0A0144510A01451902E1E86A0FD0AF
:10401000000E0A014525006E016A070E012200C04C
:10402000E9FF01C0EAFFEFCF00F0452B0050E4CFDD
:1040300001F0E4CF00F01200F2CFEAFFF29EA69E5C
:10404000A69CA684E9CFA9FFF3CFAAFFE4CFA8FFDF
:104050005CEC22F0F4CFA8FF5CEC22F0F6CFA8FFD6
:104060005CEC22F0F7CFA8FF5CEC22F0A694EABE4D
:10407000F28E120000C0E5FFCEEC1EF0006E010AC9
:1040800007E00050020A09E00050FF0A0BE00CD0E4
:10409000CEEC1EF00A01416F07D0CEEC1EF00A01F3
:1040A000406F02D03FEC22F0E4CF00F01200F2CFDC
:1040B000F6FFF29EA69EA69CE9CFA9FFF3CFAAFF2A
:1040C000A680A850A94AAA2AA680A8CFF3FFA94A89
:1040D000AA2AA680A8CFF4FFA94AAA2AA680A8CF18
:1040E000EAFFF6BEF28E1200E8AE08D0F3CFEAFF88
:1040F000EE50EECFF3FFEECFF4FF1200E8BC8BEFF3
:1041000022F0E9CFF6FFF3CFF7FFF86E0900F55084
:104110000900F5CFF3FF0900F5CFF4FF1200F2CF4D
:10412000EAFFF29EA69EA69CA684E9CFA9FFF3CF44
:10413000AAFFE4CFA8FF5CEC22F0F4CFA8FF5CEC70
:1041400022F0F6CFA8FF5CEC22F0A694EABEF28E35
:104150001200D9CFE5FFE1CFD9FF00C0E5FF020E85
:10416000DBCF00F000C048FA0050E56E000EE56AB3
:104170001FEC1FF0E652E652E4CF00F0E4CFD9FF87
:104180001200F2CFF6FFF29EA69EA69CE9CFA9FFF1
:10419000F3CFAAFFA680A850A94AAA2AA680A8CF32
:1041A000F3FFA94AAA2AA680A8CFF4FFF6BEF28E92
:1041B000120000C0E5FF01C0E5FF600E0F013225CF
:1041C000006E016A000E012200C0E9FF01C0EAFF93
:1041D000EFCF00F00050E4CF01F0E4CF00F0120088
:1041E000D9CFE5FFE1CFD9FF00C0E5FF020EDBCF5D
:1041F00000F0610E005C05E37B0E005C02E2010E44
:1042000001D0E86AE4CF00F0E4CFD9FF120000C08B
:10421000E5FF01C0E5FFFEC400F0FFC401F00401AA
:10422000FE3F01D0FF2B0050E56EE7EC21F0E65297
:10423000E4CF01F0E4CF00F01200D9CFE5FFE1CFE9
:10424000D9FF00C0E5FF020EDBCF00F000C047FA47
:10425000005004E1F5EC21F09D9A9D98E4CF00F028
:10426000E4CFD9FF1200E8AE06D0F3CFEAFFEE505C
:10427000EECFF3FF1200E8BC87EF22F0E9CFF6FFA4
:10428000F3CFF7FFF86E0900F5500900F5CFF3FF03
:104290001200F2CFEAFFF29EA69EA69CA684E9CF6A
:1042A000A9FFF3CFAAFFE4CFA8FF5CEC22F0F4CF84
:1042B000A8FF5CEC22F0A694EABEF28E120018EE83
:1042C000FFF028EEFFF0F86AA68EA69CE9680E0EB5
:1042D000EA6E0068000EED6A0050FDE1B3EC1AF0E2
:1042E00097EC0CF0FFD7F2CFF6FFF29EA69EA69CAD
:1042F000E9CFA9FFF3CFAAFFA680A850A94AAA2A0E
:10430000A680A8CFF3FFF6BEF28E1200F2CFEAFF2E
:10431000F29EA69EA69CA684E9CFA9FFF3CFAAFF92
:10432000E4CFA8FF5CEC22F0A694EABEF28E120065
:10433000E8AE04D0F3CFEAFFEE501200E8BC85EF00
:1043400022F0E9CFF6FFF3CFF7FFF86E0900F55042
:104350001200E8AE0BD0F3CFEAFFE4CFEEFFF4CFCC
:10436000EEFFF6CFEEFFF7CFEEFF1200E8BC83EFD3
:1043700022F01200C80000000000FF00000000074B
:1043800000020000004200000000000000000000E9
:1043900000000000E8AE09D0F3CFEAFFE4CFEEFF63
:1043A000F4CFEEFFF6CFEEFF1200E8BC8DEF22F067
:1043B0001200120043732048656C6C6F202120743A
:1043C000323D2025640A0000430025630000D9CF58
:1043D000E5FFE1CFD9FF020EDBCFA9FFA69CA69E89
:1043E000A680A850E4CFD9FF1200ACA2FED78B80E4
:1043F000AE500000AE50AB98AB88AB869D8A9D98BE
:10440000120025642000F2CFF6FFF29EA69EA69C25
:10441000E9CFA9FFF3CFAAFFA680A850F6BEF28E7F
:104420001200E8AE07D0F3CFEAFFE4CFEEFFF4CFFF
:10443000EEFF1200E8BC81EF22F01200700ED36E86
:104440009B8CFF0E9268936894689668626AF19EEE
:10445000120000C0E5FF78EC1DF0006E005001E195
:10446000FF00E4CF00F01200E8AE05D0F3CFEAFF82
:10447000E4CFEEFF1200E8BC7FEF22F01200010E45
:104480000F012C6F1C0E0401FE6FFF6B0BEC00F094
:104490001200D9CFE5FFE1CFD9FF020EDBCF4DFAF5
:1044A000E4CFD9FF12000F012C6B1C0E0401FE6F2C
:1044B000FF6B0BEC00F01200550EA76EAA0EA76E54
:1044C000A682A6B2FED7A94AAA2A01007443000018
:1044D000400A00001F000000ACA2FED7AD6E120023
:1044E0001EEC22F012000F01325112000A01645139
:1044F00012000A0147511200E8CF7FFF120086EF39
:1045000021F049EF21F01CEF20F003EF22F073EFD0
:1045100021F057EF20F0C1EF20F08FEF20F01200D4
:044520001200120073
:00000001FF
