:020000040000FA
:100000008EEF24F0C96E120050EF20F000EC0AF0E1
:1000100063EC1AF0FDD712000AEF22F0D9CFE5FF0A
:10002000E1CFD9FF00C0E5FF01C0E5FF02C0E5FF59
:1000300003C0E5FF04C0E5FF05C0E5FF06C0E5FF1E
:1000400007C0E5FF08C0E5FF09C0E5FF0AC0E5FFFE
:100050000BC0E5FF0CC0E5FF0DC0E5FF0EC0E5FFDE
:100060000FC0E5FF10C0E5FF11C0E5FF12C0E5FFBE
:1000700013C0E5FF14C0E5FF15C0E5FF16C0E5FF9E
:1000800017C0E5FF18C0E5FF19C0E5FF1AC0E5FF7E
:100090001BC0E5FF1CC0E5FF1DC0E5FF1EC0E5FF5E
:1000A000020EDBCF00F0030EDBCF01F0040EDBCF3E
:1000B00002F0050EDBCF03F0060EDBCF04F0070ED7
:1000C000DBCF05F0080EDBCF06F0090EDBCF07F023
:1000D0000A0EDBCF08F0096A0A6A02C00DF00D5063
:1000E000800A0DE102500A01656F0150646F0050F3
:1000F000636F0A0E016E630E006E800E026E03C007
:10010000E9FF04C0F3FF0550C7EC24F00B6E0B5061
:10011000D8B4FCEF03F00B50250A02E0E3EF03F044
:100120000C6A0D6A0E6A0F6A106A0A0E116E126A64
:10013000136A146A200E156E1668176A2B0E186E55
:10014000032A02E3044A052A03C0E9FF04C0F3FFBF
:100150000550C7EC24F0196E250A13E11950E56E1D
:100160000250E56E0150E56E0050E56E93EC17F01D
:10017000040EE126094A0A2A032A02E3044A052A50
:10018000BED71950300A06E1300E156E032A02E37D
:10019000044A052A03C0E9FF04C0F3FF0550C7EC79
:1001A00024F02D0A06E1010E146E032A02E3044A2C
:1001B000052A03C0E9FF04C0F3FF0550C7EC24F093
:1001C000200A08E1010E176E200E186E032A02E3C2
:1001D000044A052A03C0E9FF04C0F3FF0550C7EC39
:1001E00024F02B0A06E1010E176E032A02E3044AEB
:1001F000052A03C0E9FF04C0F3FF0550C7EC24F053
:10020000196E800F4F0F2DE31950800F460F29E212
:1002100003C019F004C01AF005C01BF019C0E9FFB3
:100220001AC0F3FF1B50C7EC24F01C6E800F500F58
:1002300012E31C50800F460F0EE213500A0DF3CF4D
:100240001DF01D501C26D00E1C24136E192A02E32B
:100250001A4A1B2AE3D719C003F01AC004F01BC0C6
:1002600005F003C0E9FF04C0F3FF0550C7EC24F01C
:100270002E0A2EE1032A02E3044A052A166A03C065
:1002800019F004C01AF005C01BF019C0E9FF1AC02C
:10029000F3FF1B50C7EC24F01C6E800F500F12E3CD
:1002A0001C50800F460F0EE216500A0DF3CF1DF0C2
:1002B0001D501C26D00E1C24166E192A02E31A4A61
:1002C0001B2AE3D719C003F01AC004F01BC005F0C5
:1002D00003C0E9FF04C0F3FF0550C7EC24F0196E1A
:1002E0006C0A07E1010E0C6E032A02E3044A052A98
:1002F00009D01950680A06E1010E0E6E032A02E3C6
:10030000044A052A03C0E9FF04C0F3FF0550C7EC07
:1003100024F0750A06E1010E106E032A02E3044A76
:10032000052A03C0E9FF04C0F3FF0550C7EC24F021
:10033000196E730A05E1010E0D6E200E156E3FD089
:100340001950780A03E1100E116E39D01950580A6D
:1003500005E1100E116E010E126E31D01950630AB4
:1003600002E1116A2CD019506F0A03E1080E116ED8
:1003700026D01950660A03E1010E0F6E20D01950E5
:10038000640A1DE01950690A1AE0105005E0FF0EDA
:1003900003260422052213D01950E56E0250E56EA3
:1003A0000150E56E0050E56E93EC17F0040EE12667
:1003B000094A0A2A032A02E3044A052AA0D60D5054
:1003C00021E00650030F0D6E000E0720196E000E7F
:1003D00008201A6E0DC006F019C007F01AC008F008
:1003E000FD0E0D26FF0E19221A220DC0E9FF19C0BD
:1003F000F3FF1A50A3EC23F00D6EF3CF19F0F4CFF6
:100400001AF032D10F50D8B43ED00650040F0F6E00
:10041000000E07201B6E000E08201C6E0FC006F099
:100420001BC007F01CC008F0FC0E0F26FF0E1B229D
:100430001C220FC0E9FF1BC0F3FF1C50EFEC22F0A1
:100440000F6EF3CF1BF0F4CF1CF0E9CF1DF0040EBC
:10045000196E000E0D6E800E1A6E1650E56E240E8B
:10046000E56E040EE56E000EE56E1D50E56E1C5047
:10047000E56E1B50E56E0F50E56E40EC0FF0080E78
:10048000E1261668F1D016680C5023E00650040FE0
:100490000C6E000E07200F6E000E08201B6E0CC0A5
:1004A00006F00FC007F01BC008F0FC0E0C26FF0E74
:1004B0000F221B220CC0E9FF0FC0F3FF1B50EFEC13
:1004C00022F00C6EF3CF0FF0F4CF1BF0E9CF1CF04D
:1004D0006AD00E5032E00650020F0E6E000E07205A
:1004E0001D6E000E08201E6E0EC006F01DC007F027
:1004F0001EC008F0FE0E0E26FF0E1D221E220EC08C
:10050000E9FF1DC0F3FF1E5062EC24F00E6E0EC01A
:100510000CF0E86A0EBEFF0E0F6E1B6E1C6E1150C3
:100520000A0A03E11050D8B43ED00C500E6E0EC033
:100530000CF00F6A1B6A1C6A36D00650020F0E6E52
:10054000000E07201D6E000E08201E6E0EC006F065
:100550001DC007F01EC008F0FE0E0E26FF0E1D2265
:100560001E220EC0E9FF1DC0F3FF1E5062EC24F0F6
:100570000E6EF3CF1DF00EC00CF01DC00FF0E86A38
:100580001DBEFF0E1B6E1C6E11500A0A02E11050B8
:100590000AE00C500E6E0F501D6E0EC00CF01DC008
:1005A0000FF01B6A1C6A040E196E010E0D6E800E90
:1005B0001A6E1150D8B440D0105013E01150E56EAF
:1005C000040EE56E010EE56E1C50E56E1B50E56EE7
:1005D0000F50E56E0C50E56E49EC13F0070EE12666
:1005E00012D01150E56E040EE56E010EE56E1C5042
:1005F000E56E1B50E56E0F50E56E0C50E56E32EC6B
:100600001BF0070EE12617502FE00DC0E9FF19C0BF
:10061000F3FF1A50C7EC24F02D0A26E0FF0E0D263A
:1006200019221A2218C0E5FF0DC0E9FF19C0F3FF17
:100630001A5063EC25F018D00CC0E5FF0DC0E9FF9F
:1006400019C0F3FF1A5063EC25F00D50010F0C6E2A
:10065000000E19200E6E000E1A20E56A0CC0E9FF8C
:100660000EC0F3FF63EC25F00DC00CF019C00EF0C6
:100670001AC00FF013C010F0105010E00CC0E9FFCA
:100680000EC0F3FF0F50C7EC24F0176E175006E0B2
:100690000C2A02E30E4A0F2A1006EED710C013F000
:1006A00014501EE109C00CF00AC00EF010C00FF08B
:1006B0000F5010E01550E56E0250E56E0150E56EEA
:1006C0000050E56E93EC17F0040EE1260C4A0E2A5A
:1006D0000F06EED70CC009F00EC00AF00FC013F0E1
:1006E00016C00CF00DC00DF019C00EF01AC00FF0BE
:1006F00009C010F00AC015F00DC0E9FF0EC0F3FFED
:100700000F50C7EC24F0166E1650D8B43ED00CC073
:1007100016F0176A161E171E1650171005E00CC0AB
:1007200016F00C06165031E00DC0E9FF0EC0F3FFC5
:100730000F50C7EC24F0116E125010E01150E56E0E
:100740001FEC24F0166EE652165004E01150166E9F
:10075000169A02D011C016F016C011F01150E56EB5
:100760000250E56E0150E56E0050E56E93EC17F017
:10077000040EE1260D2A02E30E4A0F2A104A152A1A
:100780001350D8B4B9D71306B7D710C009F015C0A5
:100790000AF014502BE010C00CF015C00DF013C07F
:1007A0000EF00E501FE0200EE56E0250E56E015077
:1007B000E56E0050E56E93EC17F0040EE1260C4A4E
:1007C0000D2A0E06EED70B50E56E0250E56E015075
:1007D000E56E0050E56E93EC17F0040EE126094A31
:1007E0000A2A04D00CC009F00DC00AF0032A02E363
:1007F000044A052A7FEF00F00AC0F3FF0950E4CF56
:100800001EF0E4CF1DF0E4CF1CF0E4CF1BF0E4CFEA
:100810001AF0E4CF19F0E4CF18F0E4CF17F0E4CFEA
:1008200016F0E4CF15F0E4CF14F0E4CF13F0E4CFEA
:1008300012F0E4CF11F0E4CF10F0E4CF0FF0E4CFEA
:100840000EF0E4CF0DF0E4CF0CF0E4CF0BF0E4CFEA
:100850000AF0E4CF09F0E4CF08F0E4CF07F0E4CFEA
:1008600006F0E4CF05F0E4CF04F0E4CF03F0E4CFEA
:1008700002F0E4CF01F0E4CF00F0E4CFD9FF1200A2
:1008800005C0E5FF06C0E5FF07C0E5FF08C0E5FFBE
:1008900009C0E5FF0AC0E5FF0BC0E5FF0CC0E5FF9E
:1008A0000DC0E5FF0EC0E5FF0FC0E5FF10C0E5FF7E
:1008B00011C0E5FF12C0E5FF13C0E5FF14C0E5FF5E
:1008C00015C0E5FF16C0E5FF17C0E5FF18C0E5FF3E
:1008D00019C0E5FF1AC0E5FF1BC0E5FF1CC0E5FF1E
:1008E0001DC0E5FF000E00B0050F066AF60F02E31B
:1008F000062AFCD70A0F056E042E03D0FB0F01E376
:10090000062A065000B0020F00B2050F076AF60F64
:1009100002E3072AFCD70A0F066E042E03D0FB0F52
:1009200001E3072A075000B0060F00B2020F00B41F
:10093000050F086AF60F02E3082AFCD70A0F076EB4
:10094000042E03D0FB0F01E3082A085000B2010F68
:1009500000B4020F00B6050F096AF60F02E3092A78
:10096000FCD70A0F086E042E03D0FB0F01E3092AFF
:10097000095000B0090F00B2080F00B4060F00B60E
:10098000020F00B8050F0A6AF60F02E30A2AFCD725
:100990000A0F096E042E03D0FB0F01E30A2A0A5046
:1009A00000B0030F00B2070F00B4050F00B6010F2F
:1009B00000B8020F00BA050F0B6AF60F02E30B2A0C
:1009C000FCD70A0F0A6E042E03D0FB0F01E30B2A9B
:1009D0000B5000B0050F00B4010F00B6030F00B8B4
:1009E000060F00BA020F00BC050F0C6AF60F02E3F7
:1009F0000C2AFCD70A0F0B6E042E03D0FB0F01E369
:100A00000C2A0C5000B0070F00B2050F00BA010FFE
:100A100000BC020F00BE050F0D6AF60F02E30D2A9F
:100A2000FCD70A0F0C6E042E03D0FB0F01E30D2A36
:100A30000D5000B0070F00B2050F00B4010F00B653
:100A4000020F00B8040F00BA080F00BC060F00BE6A
:100A5000020F01B0050F0E6AF60F02E30E2AFCD753
:100A60000A0F0D6E042E03D0FB0F01E30E2A0E5069
:100A700000B0040F00B2090F00B4090F00B6080F50
:100A800000B8060F00BA020F00BC050F00BE010F30
:100A900001B0020F01B2050F0F6AF60F02E30F2A31
:100AA000FCD70A0F0E6E042E03D0FB0F01E30F2AB2
:100AB0000F5000B0040F00B2080F00B4070F00B6CB
:100AC000050F00B8010F00BA030F00BC060F00BEEF
:100AD000030F01B0060F01B2020F01B4050F106A37
:100AE000F60F02E3102AFCD70A0F0F6E042E03D074
:100AF000FB0F01E3102A105000B0060F00B2020FE6
:100B000000B4050F00B6010F00B8030F00BA060FBE
:100B100000BC020F00BE050F01B2010F01B4020FAD
:100B200001B6050F116AF60F02E3112AFCD70A0F6E
:100B3000106E042E03D0FB0F01E3112A115000B0F8
:100B4000040F00B2090F00B4080F00B6070F00B879
:100B5000040F00BA080F00BC070F00BE040F01B05D
:100B6000090F01B2080F01B4060F01B6020F01B858
:100B7000050F126AF60F02E3122AFCD70A0F116E54
:100B8000042E03D0FB0F01E3122A125000B4010F10
:100B900000B6030F00B8070F00BA040F00BC090F1E
:100BA00000BE090F01B0080F01B2070F01B4050F15
:100BB00001B6010F01B8020F01BA050F136AF60F53
:100BC00002E3132AFCD70A0F126E042E03D0FB0F88
:100BD00001E3132A135000B0060F00B2020F00B455
:100BE000040F00B6080F00B8060F00BA030F00BCD0
:100BF000060F00BE030F01B0070F01B2050F01B4CD
:100C0000010F01B6030F01B8060F01BA020F01BCB4
:100C1000050F146AF60F02E3142AFCD70A0F136EAD
:100C2000042E03D0FB0F01E3142A145000B0090F67
:100C300000B2090F00B4080F00B6060F00B8030F8A
:100C400000BA070F00BC040F00BE090F01B0080F67
:100C500001B2070F01B4050F01BA010F01BC020F69
:100C600001BE050F156AF60F02E3152AFCD70A0F1D
:100C7000146E042E03D0FB0F01E3152A155000B0AB
:100C8000050F00B2010F00B4030F00B6070F00B844
:100C9000050F00BC010F00BE020F01B0050F01B22D
:100CA000010F01B4030F01B6070F01B8040F01BA19
:100CB000080F01BC060F01BE020F02B0050F166A35
:100CC000F60F02E3162AFCD70A0F156E042E03D086
:100CD000FB0F01E3162A165000B2010F00B4020FF9
:100CE00000B6040F00B8090F00BA090F00BC080FC6
:100CF00000BE060F01B0020F01B2050F01B8010FCF
:100D000001BA020F01BC050F01BE010F02B0020FB4
:100D100002B2050F176AF60F02E3172AFCD70A0F73
:100D2000166E042E03D0FB0F01E3172A175000BAEA
:100D3000010F00BC030F00BE070F01B0050F01B487
:100D4000010F01B6020F01B8040F01BA080F01BC70
:100D5000060F01BE030F02B0060F02B2020F02B46B
:100D6000050F186AF60F02E3182AFCD70A0F176E50
:100D7000042E03D0FB0F01E3182A185001B0010F15
:100D800001B2030F01B4060F01B6020F01B8040F40
:100D900001BA080F01BC070F01BE050F02B2010F17
:100DA00002B4020F02B6050F196AF60F02E3192A00
:100DB000FCD70A0F186E042E03D0FB0F01E3192A8B
:100DC000195001B6010F01B8020F01BA040F01BC9E
:100DD000090F01BE090F02B0090F02B2080F02B4D9
:100DE000060F02B6020F02B8050F1A6AF60F02E3E9
:100DF0001A2AFCD70A0F196E042E03D0FB0F01E349
:100E00001A2A1A5001BE010F02B0030F02B2070FD7
:100E100002B4050F02B6010F02B8020F02BA050FA5
:100E20001B6AF60F02E31B2AFCD70A0F1A6E042E68
:100E300003D0FB0F01E31B2A1B5002B4010F02B6C3
:100E4000030F02B8060F02BA020F02BC050F1C6A9C
:100E5000F60F02E31C2AFCD70A0F1B6E042E03D0E8
:100E6000FB0F01E31C2A1C5002BA010F02BC020F47
:100E700002BE050F1D6AF60F02E31D2AFCD70A0FFA
:100E80001C6E042E03D0FB0F01E31D2A300FEE6E03
:100E90001B50300FEE6E1A50300FEE6E1950300F9F
:100EA000EE6E1850300FEE6E1750300FEE6E16507B
:100EB000300FEE6E1550300FEE6E1450300FEE6E98
:100EC0001350300FEE6E1250300FEE6E1150300F87
:100ED000EE6E1050300FEE6E0F50300FEE6E0E5063
:100EE000300FEE6E0D50300FEE6E0C50300FEE6E78
:100EF0000B50300FEE6E0A50300FEE6E0950300F6F
:100F0000EE6E0850300FEE6E0750300FEE6E06504A
:100F1000300FEE6E0550300FEE6E170EE4CF1DF061
:100F2000E4CF1CF0E4CF1BF0E4CF1AF0E4CF19F0CB
:100F3000E4CF18F0E4CF17F0E4CF16F0E4CF15F0CB
:100F4000E4CF14F0E4CF13F0E4CF12F0E4CF11F0CB
:100F5000E4CF10F0E4CF0FF0E4CF0EF0E4CF0DF0CB
:100F6000E4CF0CF0E4CF0BF0E4CF0AF0E4CF09F0CB
:100F7000E4CF08F0E4CF07F0E4CF06F0E4CF05F0CB
:100F8000120000C0E5FF01C0E5FF02C0E5FF03C09D
:100F9000E5FF04C0E5FF05C0E5FF06C0E5FF07C0AB
:100FA000E5FF08C0E5FF09C0E5FF0AC0E5FF0BC08B
:100FB000E5FF006A016A040E015CD8B0E8D10001C7
:100FC000F02B100EF05D01E3F06B0001F039E84406
:100FD0001F0B026E036A660E02260A0E032202C06F
:100FE000E9FF03C0EAFFEFCF02F0070EF015036E32
:100FF000010E046E000E056E035006E0E86CD890FA
:1010000004360536010FFCE3066A0250041606504A
:101010000516045005E1055003E1046A042A01D0D5
:10102000046A0450D880E866D890046A04360450F4
:10103000D8B4C1D70001F051020DF450036EF3CFC4
:1010400002F05C0E0224046E040E0320056E04C040
:10105000E9FF05C0EAFFEECF04F0EFCF05F0000195
:10106000EDA19DD0D30E0224066E040E0320076E60
:1010700006C0E9FF07C0EAFFEECF06F0EFCF07F0AA
:101080000550800FF36E0750800FF35C02E10650AD
:10109000045C03E2046A056A60D0000E02260A0EB0
:1010A000032202C0E9FF03C0EAFFEECF02F0EFCF58
:1010B00003F00350800FF36E0550800FF35C02E1E4
:1010C0000450025C04E204683F0E056E46D00650F0
:1010D000045C086E07500558096EE86A09BEFF0EE9
:1010E0000A6EE56E0A50E56E0950E56E0850E56E31
:1010F000E56AE56A400EE56E000EE56A52EC10F016
:10110000086EF3CF09F0F4CF0AF0E9CF0BF0080E28
:10111000E1260650025C066E07500358076EE86A27
:1011200007BEFF0E026EE56E0250E56E0750E56EDB
:101130000650E56E0B50E56E0A50E56E0950E56EFF
:101140000850E56E7EEC16F0026EF3CF03F0080E49
:10115000E1260250046E0350056E0001EC51800F31
:10116000F36E0550800FF35C02E10450EB5D03E386
:10117000046A056A14D00001EB51FF08026E3F0EAD
:10118000EC55036E0550800FF36E0350800FF35C37
:1011900002E10250045C03E304683F0E056E0001A7
:1011A000F051020DF450036EF3CF02F0B30E02269D
:1011B000040E032202C0E9FF03C0EAFFEECF02F0F3
:1011C000EFCF03F00250045C026E03500558036E2B
:1011D000D88003AED89004E3031E026CD8B4032A6F
:1011E000012A0001EC51800FF36E0350800FF35C75
:1011F00002E10250EB5DD8B0DED60001F051020DE5
:10120000F450076EF3CF06F0B30E0626040E072245
:1012100006C0E9FF07C0EAFF04C0EEFF05C0EFFF0C
:101220000001EDA55AD00001F051020DF450076EF7
:10123000F3CF06F0200E0624086E0A0E0720096E72
:1012400008C0E9FF09C0EAFFEECF0AF0EFCF0BF0CC
:101250000A500B10D8B441D0930E0626040E072274
:1012600006C0E9FF07C0EAFFEECF06F0EFCF07F0B8
:101270000650045C026E07500558036E02101CE015
:101280000350800F800F02E1010E025C066A0636F1
:101290000B50800F800F02E1010E0A5C0A6A0A36C9
:1012A00006500A1809E108C0E9FF09C0EAFF02C0B8
:1012B000EEFF03C0EFFF7FD60001F051020DF450A6
:1012C000036EF3CF02F0200E02260A0E032202C0A4
:1012D000E9FF03C0EAFFEE6AEF6A0001EDA343D025
:1012E00000500EE100C002F0002A036AF10E02264F
:1012F000000E032202C0E9FF03C0EAFF420EEF6EB8
:1013000000C002F0002A036AF10E0226000E03223A
:10131000640E0001F025066E02C0E9FF03C0EAFF7B
:1013200006C0EFFF00C002F0002A036AF10E022699
:10133000000E03220550066E02C0E9FF03C0EAFF5B
:1013400006C0EFFF00C002F0002A036AF10E022679
:10135000000E03220450066E02C0E9FF03C0EAFF3C
:1013600006C0EFFF28D6F0C002F00550E56E04502D
:10137000E56EE56A0250E56E000EE56E320EE56E32
:10138000160EE56EE0EC1EF0070EE12614D60050B6
:101390001DE00001EDA31AD000C002F0002A036A8C
:1013A000F10E0226000E032202C0E9FF03C0EAFF8D
:1013B0000A0EEF6E0050E56E800EE56E000EE56ED3
:1013C000F10EE56E1CEC18F0040EE1260150E4CF9E
:1013D0000BF0E4CF0AF0E4CF09F0E4CF08F0E4CF5B
:1013E00007F0E4CF06F0E4CF05F0E4CF04F0E4CF5B
:1013F00003F0E4CF02F0E4CF01F0E4CF00F01200FC
:1014000000C0E5FF01C0E5FF02C0E5FF03C0E5FF46
:1014100004C0E5FF9BEC25F094928B9297EC18F0BA
:101420009280800E006E0F0E016E0F0E036E380E4E
:10143000002603500122800E026E0F0E036E800EF6
:10144000005E0350015A0F0E046E380E022604503F
:1014500003220F0E046E800E025E0450035A02C077
:10146000E9FF03C0EAFFEFCF02F0028000C0E9FF0E
:1014700001C0EAFF02C0EFFF000EE56AE56AF2EC88
:101480001BF0E652E6529282800E006E0F0E016E45
:101490000F0E036E380E002603500122800E026EDE
:1014A0000F0E036E800E005E0350015A0F0E046E85
:1014B000380E0226045003220F0E046E800E025EC8
:1014C0000450035A02C0E9FF03C0EAFFEFCF02F065
:1014D000028200C0E9FF01C0EAFF02C0EFFF010E77
:1014E000E56EE56EF2EC1BF0E652E6529284800E59
:1014F000006E0F0E016E0F0E036E380E00260350A5
:101500000122800E026E0F0E036E800E005E0350ED
:10151000015A0F0E046E380E0226045003220F0EDD
:10152000046E800E025E0450035A02C0E9FF03C03D
:10153000EAFFEFCF02F0028400C0E9FF01C0EAFF3A
:1015400002C0EFFF020EE56EE56EF2EC1BF0E65214
:10155000E6529486820E006E0F0E016E0F0E036E21
:10156000380E0026035001220F0E036E800E005E1F
:101570000350015A820E026E0F0E036E0F0E046EA0
:10158000380E0226045003220F0E046E800E025EF7
:101590000450035A02C0E9FF03C0EAFFEFCF02F094
:1015A000028600C0E9FF01C0EAFF02C0EFFF0F0E94
:1015B000E56E030EE56EF2EC1BF0E652E652D3EC5C
:1015C0001DF0938C810E006E0F0E016E0F0E036ED8
:1015D000380E0026035001220F0E036E800E005EAF
:1015E0000350015A810E026E0F0E036E0F0E046E31
:1015F000380E0226045003220F0E046E800E025E87
:101600000450035A02C0E9FF03C0EAFFEFCF02F023
:10161000029C00C0E9FF01C0EAFF02C0EFFF060E16
:10162000E56E800EE56E0F0EE56E810EE56E000E26
:10163000E56A1AEC1EF0050EE126938E810E006E0F
:101640000F0E016E0F0E036E380E0026035001229E
:101650000F0E036E800E005E0350015A810E026E63
:101660000F0E036E0F0E046E380E02260450032276
:101670000F0E046E800E025E0450035A02C0E9FF92
:1016800003C0EAFFEFCF02F0029E00C0E9FF01C0F5
:10169000EAFF02C0EFFF070EE56E800EE56E0F0E4B
:1016A000E56E810EE56E010EE56E1AEC1EF0050E7C
:1016B000E126B6EC21F0F3CF01F0F4CF02F0E9CF50
:1016C00003F0880F0401346F130E0120356F000EF4
:1016D0000220366F000E0320376FE0C06CFAE4CFB3
:1016E00004F0E4CF03F0E4CF02F0E4CF01F0E4CF64
:1016F00000F0120000C0E5FF01C0E5FF02C0E5FFF9
:1017000003C0E5FF04C0E5FF05C0E5FF06C0E5FF37
:1017100007C0E5FF08C0E5FF09C0E5FF0AC0E5FF17
:101720000BC0E5FF0CC0E5FF0DC0E5FF0EC0E5FFF7
:10173000000E00B0010F00B2020F00B4040F00B69B
:10174000080F00B8060F00BA020F00BC040F00BE5D
:10175000080F01B0060F01B2020F01B4040F01B669
:10176000080F01B8060F01BA020F01BC040F01BE39
:10177000080F02B0060F02B2020F02B4040F02B645
:10178000080F02B8060F02BA020F02BC040F02BE15
:10179000080F056AF60F02E3052AFCD70A0F046E4C
:1017A000055000B8010F00BA030F00BC060F00BEC1
:1017B000020F01B0050F01B2010F01B4020F01B613
:1017C000040F01B8090F01BA090F01BC080F01BECF
:1017D000060F02B0030F02B2070F02B4040F02B6E5
:1017E000080F02B8070F02BA050F066AF60F02E3E8
:1017F000062AFCD70A0F056E065000BE010F01B085
:10180000020F01B2050F01BA010F01BC030F01BEA7
:10181000070F02B0050F02B4010F02B6020F02B8A3
:10182000050F02BA010F02BC030F02BE060F076AC2
:10183000F60F02E3072AFCD70A0F066E075001B421
:10184000010F01B6020F01B8040F01BA080F01BC65
:10185000060F01BE020F02B0050F02B2010F02B463
:10186000020F02B6040F02B8080F02BA070F02BC3B
:10187000040F02BE080F086AF60F02E3082AFCD71D
:101880000A0F076E085001BC010F01BE030F02B022
:10189000060F02B2030F02B4060F02B6020F02B81F
:1018A000040F02BA090F02BC090F02BE080F096A31
:1018B000F60F02E3092AFCD70A0F086E095002B29C
:1018C000010F02B4020F02B6050F02BC010F02BEE7
:1018D000030F0A6AF60F02E30A2AFCD70A0F096E01
:1018E0000A5002B8010F02BA020F02BC040F02BE76
:1018F000080F0B6AF60F02E30B2AFCD70A0F0A6ED9
:101900000B500E6A0EE10A5010E1095012E1085026
:1019100014E1075016E1065018E105501AE1045091
:101920001CD00E2A300FEE6E0A500E2A300FEE6ECB
:1019300009500E2A300FEE6E08500E2A300FEE6E50
:1019400007500E2A300FEE6E06500E2A300FEE6E44
:1019500005500E2A300FEE6E04500E2A300FEE6E38
:101960000E50E4CF0EF0E4CF0DF0E4CF0CF0E4CF56
:101970000BF0E4CF0AF0E4CF09F0E4CF08F0E4CFB5
:1019800007F0E4CF06F0E4CF05F0E4CF04F0E4CFB5
:1019900003F0E4CF02F0E4CF01F0E4CF00F0120056
:1019A000800EE56E0A0EE56E000EE56EECEC1CF0A6
:1019B000030EE126800EE56E040EE56ED30EE56E95
:1019C000ECEC1CF0030EE126800EE56E0A0EE56ECF
:1019D000020EE56EECEC1CF0030EE126800EE56EC7
:1019E000040EE56ED50EE56EECEC1CF0030EE12660
:1019F000800EE56E0A0EE56E040EE56EECEC1CF052
:101A0000030EE126800EE56E040EE56ED70EE56E40
:101A1000ECEC1CF0030EE126800EE56E0A0EE56E7E
:101A2000060EE56EECEC1CF0030EE126800EE56E72
:101A3000040EE56ED90EE56EECEC1CF0030EE1260B
:101A4000800EE56E0A0EE56E080EE56EECEC1CF0FD
:101A5000030EE126800EE56E040EE56EDB0EE56EEC
:101A6000ECEC1CF0030EE126800EE56E0A0EE56E2E
:101A70000A0EE56EECEC1CF0030EE126800EE56E1E
:101A8000040EE56EDD0EE56EECEC1CF0030EE126B7
:101A9000800EE56E0A0EE56E0C0EE56EECEC1CF0A9
:101AA000030EE126800EE56E040EE56EDF0EE56E98
:101AB000ECEC1CF0030EE126800EE56E0A0EE56EDE
:101AC0000E0EE56EECEC1CF0030EE126800EE56ECA
:101AD000040EE56EE10EE56EECEC1CF0030EE12663
:101AE000800EE56E0A0EE56E100EE56EECEC1CF055
:101AF000030EE126800EE56E040EE56EE30EE56E44
:101B0000ECEC1CF0030EE126800EE56E0A0EE56E8D
:101B1000120EE56EECEC1CF0030EE126800EE56E75
:101B2000040EE56EE50EE56EECEC1CF0030EE1260E
:101B3000800EE56E0A0EE56E140EE56EECEC1CF000
:101B4000030EE126800EE56E040EE56EE70EE56EEF
:101B5000ECEC1CF0030EE126800EE56E0A0EE56E3D
:101B6000160EE56EECEC1CF0030EE126800EE56E21
:101B7000040EE56EE90EE56EECEC1CF0030EE126BA
:101B8000800EE56E0A0EE56E180EE56EECEC1CF0AC
:101B9000030EE126800EE56E040EE56EEB0EE56E9B
:101BA000ECEC1CF0030EE126800EE56E0A0EE56EED
:101BB0001A0EE56EECEC1CF0030EE126800EE56ECD
:101BC000040EE56EED0EE56EECEC1CF0030EE12666
:101BD000800EE56E0A0EE56E1C0EE56EECEC1CF058
:101BE000030EE126800EE56E040EE56EEF0EE56E47
:101BF000ECEC1CF0030EE126800EE56E0A0EE56E9D
:101C00001E0EE56EECEC1CF0030EE126800EE56E78
:101C1000040EE56EF10EE56EECEC1CF0030EE12611
:101C2000120000C0E5FF01C0E5FF02C0E5FF03C0F0
:101C3000E5FF04C0E5FF05C0E5FF06C0E5FF07C0FE
:101C4000E5FF08C0E5FF09C0E5FFC2B204D100010D
:101C5000EF51D8B4AFD00001EE51020DF450016E37
:101C6000F3CF00F05C0E0026040E012200C0E9FF55
:101C700001C0EAFFEECF02F0EFCF03F002380F0B06
:101C8000046E0338056EF00B051A04260532043283
:101C9000F80E05B405260450025C046E0550035886
:101CA000056EC3CF06F0076A0650042607500522CA
:101CB000C4CF06F00650096E086A08500426095081
:101CC000052200C0E9FF01C0EAFF04C0EEFF05C025
:101CD000EFFF0001EA51010A01E06AD00001EE5174
:101CE000020DF450016EF3CF00F05C0E0024046E80
:101CF000040E0120056E04C0E9FF05C0EAFFEECF27
:101D000002F0EFCF03F0D30E0026040E012200C034
:101D1000E9FF01C0EAFFEECF04F0EFCF05F09C0E23
:101D20000426D8A005060350800FF36E0550800FDF
:101D3000F35C02E10450025C0EE20250640F046E98
:101D4000000E0320056E00C0E9FF01C0EAFF04C0D9
:101D5000EEFF05C0EFFF0001EE51020DF450016EE1
:101D6000F3CF00F0000E00260A0E012200C0E9FFAA
:101D700001C0EAFFEECF04F0EFCF05F0640E0426B9
:101D8000D8B0052A0550800FF36E0350800FF35C26
:101D900002E10250045C0CE29C0E0226D8A003066D
:101DA00000C0E9FF01C0EAFF02C0EEFF03C0EFFF81
:101DB0000001EF6B0001EE2B100EEE5D01E3EE6B08
:101DC0000001EE39E8441F0B006E016A660E002622
:101DD0000A0E012200C0E9FF01C0EAFFEFCF00F0C8
:101DE000070EEE15016E010E026E000E036E01501D
:101DF00006E0E86CD89002360336010FFCE3046A73
:101E00000050021604500316025005E1035003E18E
:101E1000026A022A01D0026A0250D880E866D8908D
:101E2000026A0236025017E0240E0001EE25006E11
:101E3000016A040E012200C0E9FF01C0EAFFEFCFF2
:101E400000F00044E844FC0B016E0128C26EC2821F
:101E5000010E0001EF6FE4CF09F0E4CF08F0E4CF0A
:101E600007F0E4CF06F0E4CF05F0E4CF04F0E4CFD0
:101E700003F0E4CF02F0E4CF01F0E4CF00F0120071
:101E8000D9CFE5FFE1CFD9FF00C0E5FF01C0E5FFF5
:101E900002C0E5FF03C0E5FF04C0E5FF05C0E5FFA4
:101EA00006C0E5FF07C0E5FF08C0E5FF09C0E5FF84
:101EB0000AC0E5FF0BC0E5FF020EDBCF00F0030E0A
:101EC000DBCF01F0040EDBCF02F0050EDBCF03F019
:101ED000060EDBCF04F0070EDBCF05F0080EDBCFDC
:101EE00006F0090EDBCF07F006C008F00606085022
:101EF0000EE006500424086EE86A06BEE868052075
:101F0000096E08C0E9FF09C0EAFFEF6AEDD700508B
:101F10000401F76F0150F86F0250F96F0350FA6F28
:101F2000F7C400F0F8C401F0F9C402F0FAC403F0F9
:101F3000066A086A096A800E03140A6E065007E1F1
:101F4000085005E1095003E10A50800A01E012D06F
:101F5000039E00500401F76F0150F86F0250F96FB3
:101F60000350FA6F04C0E9FF05C0EAFF2D0EEF6EC3
:101F7000044A052A0401F935FA357E08006EF75146
:101F8000016EF851026E7F0EF915036E066A038E1C
:101F9000086A096A0A6A0B6A005019E0D88000AE24
:101FA000D8900EE30850082609360A360B3603BED1
:101FB000088001500126023603360636002AECD787
:101FC000D89006320332023201320006E5D70850BB
:101FD00009100A100B1012E00550E56E0450E56E72
:101FE0000B50E56E0A50E56E0950E56E0850E56E3F
:101FF0008BEC21F0006E060EE12608D004C0E9FF4C
:1020000005C0EAFF300EEF6E010E006E0050042690
:10201000E86A00BEE8680522075028E004C0E9FF2E
:1020200005C0EAFF2E0EEF6E002A044A052A07506B
:102030001808E56E0550E56E0450E56E0650E56E35
:102040000350E56E0250E56E0150E56EF8EC20F0AD
:10205000016E070EE1260150002607500426E86AAB
:10206000052204C0E9FF05C0EAFFEF6A0050E4CF93
:102070000BF0E4CF0AF0E4CF09F0E4CF08F0E4CFAE
:1020800007F0E4CF06F0E4CF05F0E4CF04F0E4CFAE
:1020900003F0E4CF02F0E4CF01F0E4CF00F0E4CFAE
:1020A000D9FF1200D9CFE5FFE1CFD9FF00C0E5FF8E
:1020B00001C0E5FF02C0E5FF03C0E5FF04C0E5FF86
:1020C00005C0E5FF06C0E5FF07C0E5FF020EDBCF58
:1020D00000F0030EDBCF01F0040EDBCF02F0050EA3
:1020E000DBCF03F0060EDBCF04F0070EDBCF05F0ED
:1020F000080EDBCF06F0090EDBCF07F0005004011D
:10210000816F0150826F0250836F0350846F0450BF
:102110000401856F0550866F0650876F0750886FE2
:102120000401815104018703F4CF01F0F3CF00F0E3
:10213000005004018C6F01508D6F04018151040126
:102140008503F4CF01F0F3CF00F0005004018A6F53
:1021500001508B6F0401845104018503F3CF00F01B
:1021600004018D51002600508D6F0401835104013C
:102170008603F3CF00F004018D51002600508D6FCF
:102180000401835104018503F4CF01F0F3CF00F083
:1021900004018C5100268D51012200508C6F01509A
:1021A0008D6F0401825104018603F4CF01F0F3CF57
:1021B00000F004018C5100268D51012200508C6FDB
:1021C00001508D6F0401825104018703F3CF00F0A9
:1021D00000500401916F0401825104018503F4CF82
:1021E00001F0F3CF00F0005004018F6F0150906FA9
:1021F0000401815104018803F3CF00F00050040171
:10220000F66F0401815104018603F4CF01F0F3CF8E
:1022100000F000500401F46F0150F56F04018E6B63
:102220000401F36B04018E5104018A25006E040140
:102230008F5104018B21016E0401905104018C2106
:10224000026E0401915104018D21036E00508A6FCA
:1022500001508B6F02508C6F03508D6F0401F3514E
:1022600004018A25006E0401F45104018B21016EE2
:102270000401F55104018C21026E0401F6510401A0
:102280008D21036E03C0E9FF02C0F4FF01C0F3FF1C
:102290000050E4CF07F0E4CF06F0E4CF05F0E4CF40
:1022A00004F0E4CF03F0E4CF02F0E4CF01F0E4CF98
:1022B00000F0E4CFD9FF120000C0E5FF01C0E5FF48
:1022C0000001E751D8B4F5D09DA81DD09EA81BD021
:1022D0000A0177510A01741905E124EC25F00A017D
:1022E000746BE7D0000E0A017725006E016A0F0EAD
:1022F000012200C0E9FF01C0EAFFEFCF70FA772B9F
:1023000070CAADFFD6D09EAAD4D0ABA205D00A0128
:10231000758124EC25F0CDD0ABA405D00A017583DE
:1023200024EC25F0C6D0ABA03ED0AECF70FA800E24
:102330000001E8110A01701904E10A017589AB96E0
:10234000B8D00A01705104E070510001E81927E18A
:102350000A017599AB960A01705103E00A0175975D
:1023600002D00A01758770CA79FA72CA7AFA0A012C
:1023700072050A017B6F600E0A017A25006E016A00
:10238000000E012200C0E9FF01C0EAFF70CAEFFFA2
:102390007A2B7A51800A02E10A017A6B8AD00A010B
:1023A0007599AB8686D0AECF70FA0A0175A919D09F
:1023B000800E0001E8110A01701911E18B909D9ABD
:1023C000AB980A01745104E1AD6A24EC25F007D002
:1023D00000CFADFF010E0A01776F9D886AD0AB86F2
:1023E00068D00A0170510A0179270A017A510A015D
:1023F0007B191BE10A0179510CE17ACA72FA0A01D0
:1024000075B712D08B909D9AAB98AD6A24EC25F0ED
:102410000BD00A01758575B707D08B909D9AAB9844
:10242000010EAD6E24EC25F044D00A017A510A0168
:10243000731908E10A0173510A01721903E024ECCF
:1024400025F037D072CA00F0016A004A012AE56A15
:10245000800EE56E0150E56E0050E56E88EC19F0D7
:10246000006E040EE12600500A01716F0A017A190C
:102470000CE11F0E0A0170150A017B6F7B2B7B2B71
:102480000A0172510A017B277B9F7ACA00F00A0178
:102490007A2B016A600E0026000E012200C0E9FFBF
:1024A00001C0EAFF70CAEFFF7A51800A02E10A0117
:1024B0007A6BE4CF01F0E4CF00F0120000C0E5FF3A
:1024C00001C0E5FF02C0E5FF03C0E5FF04C0E5FF72
:1024D00005C0E5FF06C0E5FF07C0E5FF08C0E5FF52
:1024E00009C0E5FF0AC0E5FF006A016A040E015C4D
:1024F000D8B0B7D0230E0001FE25026E036A0F0E7E
:10250000032202C0E9FF03C0EAFFEFCF02F002504E
:10251000D8B4A0D0FE39E8441F0B026E6A0E022424
:10252000036E046A0A0E042203C0E9FF04C0EAFF36
:10253000EFCF03F0070EFE15046E010E056E000EC0
:10254000066E045006E0E86CD89005360636010F9A
:10255000FCE3076A0550031606500716035005E111
:10256000075003E1036A032A01D0036A0350D880AD
:10257000E866D890036A0336076A680E02260A0ED8
:10258000072202C0E9FF07C0EAFFEFCF08F008C04A
:1025900009F00A6A095005160A500616055005E1A9
:1025A000065003E1056A052A01D0056A0550D88066
:1025B000E866D890056A05360350051801E14AD04F
:1025C000035012E0010E056E045005E0E86CD8904F
:1025D0000536010FFDE30550081202C0E9FF07C0F0
:1025E000EAFF08C0EFFF17D002C0E9FF07C0EAFF0B
:1025F000EFCF05F0010E066E045005E0E86CD890B0
:102600000636010FFDE3061C051602C0E9FF07C0F0
:10261000EAFF05C0EFFF035003E1036A032A01D07C
:10262000036A026A03BE0268FEC004F00250E56E4F
:102630000350E56EE56A0450E56E000EE56E3C0E53
:10264000E56E280EE56EE0EC1EF0070EE126012A8D
:1026500001C000F00001FE2B100EFE5DD8A046D791
:10266000FE6B0050E4CF0AF0E4CF09F0E4CF08F0AD
:10267000E4CF07F0E4CF06F0E4CF05F0E4CF04F0B8
:10268000E4CF03F0E4CF02F0E4CF01F0E4CF00F0B8
:102690001200D9CFE5FFE1CFD9FF00C0E5FF01C0AF
:1026A000E5FF02C0E5FF03C0E5FF04C0E5FF05C08C
:1026B000E5FF06C0E5FF07C0E5FF08C0E5FF09C06C
:1026C000E5FF0AC0E5FF0BC0E5FF0CC0E5FF0DC04C
:1026D000E5FF0EC0E5FF0FC0E5FF020EDBCF00F007
:1026E000030EDBCF01F0040EDBCF02F0050EDBCFD3
:1026F00003F0060EDBCF04F0070EDBCF05F0080E6B
:10270000DBCF06F0200E076E086A06C009F00A6AE1
:102710000B6A0C6AE56AE56AE56A0950E56E0350E2
:10272000E56E0250E56E0150E56E0050E56E5EEC20
:1027300015F00D6E080EE126300E0D263A0E0D5CDA
:1027400005E30D500E6E270E0E240D6EFF0E0726AC
:102750000822400E07240E6E0A0E08200F6E0EC0CF
:10276000E9FF0FC0EAFF0DC0EFFF0C50E56E0B5004
:10277000E56E0A50E56E0950E56E0350E56E0250B5
:10278000E56E0150E56E0050E56E7EEC16F0006ED1
:10279000F3CF01F0F4CF02F0E9CF03F0080EE12609
:1027A0000050011002100310D8A4AFD707C000F0EA
:1027B00008C001F004C002F005C003F000C004F03E
:1027C00001C005F0004A012A400E04260A0E052227
:1027D00004C0E9FF05C0EAFFEFCF04F002C0E9FF43
:1027E00003C0EAFF04C0EFFF024A032A000E015CA7
:1027F00002E1200E005CE2E302C0E9FF03C0EAFF51
:10280000000EEF6AE4CF0FF0E4CF0EF0E4CF0DF04E
:10281000E4CF0CF0E4CF0BF0E4CF0AF0E4CF09F002
:10282000E4CF08F0E4CF07F0E4CF06F0E4CF05F002
:10283000E4CF04F0E4CF03F0E4CF02F0E4CF01F002
:10284000E4CF00F0E4CFD9FF120000C0E5FF01C0E3
:10285000E5FF02C0E5FF03C0E5FF04C0E5FF05C0DA
:10286000E5FF006A230E0024016E026A0F0E0222A9
:1028700001C0E9FF02C0EAFFEFCF01F00150D8B478
:1028800078D001380F0B026E036A800E02260F0EFD
:10289000032202C0E9FF03C0EAFFEFCF02F0070EF8
:1028A0000116010E036E000E046E015006E0E86C86
:1028B000D89003360436010FFCE3056A0250031674
:1028C00005500416035005E1045003E1036A032A8E
:1028D00001D0036A0350D880E866D890036A0336B3
:1028E000035024E00038E8441F0B016E026A6A0EB0
:1028F00001260A0E022201C0E9FF02C0EAFFEFCF63
:1029000003F0070E0014046E010E056E045005E07E
:10291000E86CD8900536010FFDE30550031201C0A5
:10292000E9FF02C0EAFF03C0EFFF23D00038E8440C
:102930001F0B016E026A6A0E01260A0E022201C0F6
:10294000E9FF02C0EAFFEFCF03F0070E0014046EA8
:10295000010E056E045005E0E86CD8900536010FB5
:10296000FDE3051C031601C0E9FF02C0EAFF03C036
:10297000EFFF002A100E005CD8A074D7E4CF05F05A
:10298000E4CF04F0E4CF03F0E4CF02F0E4CF01F0B1
:10299000E4CF00F0120000C0E5FF01C0E5FF02C077
:1029A000E5FF03C0E5FF04C0E5FF0A0173510A011A
:1029B000721901E165D073CA00F0002A009E600E12
:1029C0000024016E026A000E022201C0E9FF02C06B
:1029D000EAFFEFCF7DFA1F0E0A017D1773CA7CFA5A
:1029E0007D510A017C277C2B7C2B7C9FE0EC21F025
:1029F000016E015003E1016A012A01D0016AE0EC95
:102A000021F00A017D6F800E7D15026E1F0E7D156F
:102A1000036E03C004F003C07DFA045003E172CAE0
:102A200073FA41D0015021E002501CE0E0EC21F0AB
:102A3000006E0A017D070050420A03E1C5EC25F053
:102A40001DD000504E0A03E15EEC1EF017D000507E
:102A5000460A03E158EC25F011D00050490A0EE176
:102A6000FF000CD0C4EC25F009D073CA7EFA0250E6
:102A700003E05FEC1FF002D04CEC23F07CCA73FA49
:102A80000001E4510001E51906E00A01745103E177
:102A90000AEC17F008D08BB006D00A01745103E19C
:102AA000ACB224EC25F0E4CF04F0E4CF03F0E4CFA3
:102AB00002F0E4CF01F0E4CF00F01200D9CFE5FF3F
:102AC000E1CFD9FF00C0E5FF01C0E5FF02C0E5FF8F
:102AD00003C0E5FF04C0E5FF05C0E5FF06C0E5FF54
:102AE00007C0E5FF08C0E5FF09C0E5FF0AC0E5FF34
:102AF000020EDBCF00F0030EDBCF01F0040EDBCFC4
:102B000002F0050EDBCF03F0060EDBCF04F0070E5C
:102B1000DBCF05F0080EDBCF06F0090EDBCF07F0A8
:102B2000086A096A0750800BE8440A6E0A501BE1E4
:102B3000045004260536063607360750035C08E1C4
:102B40000650025C05E10550015C02E10450005CA6
:102B500006E2D890073206320532043204D0092A40
:102B600009C008F0DFD70750035C08E10650025C9B
:102B700005E10550015C02E10450005C08E30450EB
:102B8000005E0550015A0650025A0750035AD89069
:102B9000073206320532043208C009F0080609502F
:102BA000E2E103C0E9FF02C0F4FF01C0F3FF0050FF
:102BB000E4CF0AF0E4CF09F0E4CF08F0E4CF07F067
:102BC000E4CF06F0E4CF05F0E4CF04F0E4CF03F067
:102BD000E4CF02F0E4CF01F0E4CF00F0E4CFD9FF7E
:102BE000120000C0E5FF01C0E5FF03C0E5FF04C01F
:102BF000E5FF05C0E5FF06C0E5FF07C0E5FF08C02B
:102C0000E5FF09C0E5FF0AC0E5FF0BC0E5FFFEC414
:102C100000F0FFC401F00401FE3F01D0FF2B005083
:102C2000E56E16EC25F0E652076E046A056A066A40
:102C3000FEC400F0FFC401F00401FE3F01D0FF2BF1
:102C40000050E56E16EC25F0E6520B6A0A6E086A33
:102C50000850041205120A5006120B500712FEC447
:102C600000F0FFC401F00401FE3F01D0FF2B005033
:102C7000E56E16EC25F0E652036E006A03C001F023
:102C8000E86A03BEFF0E086E096E00500412015080
:102C900005120850061209500712FEC400F0FFC4C6
:102CA00001F00401FE3F01D0FF2B0050E56E16EC51
:102CB00025F0E652016A04120150051206120712AD
:102CC00007C0E9FF06C0F4FF05C0F3FF0450E4CFDE
:102CD0000BF0E4CF0AF0E4CF09F0E4CF08F0E4CF42
:102CE00007F0E4CF06F0E4CF05F0E4CF04F0E4CF42
:102CF00003F0E4CF01F0E4CF00F01200D9CFE5FFFC
:102D0000E1CFD9FF00C0E5FF01C0E5FF02C0E5FF4C
:102D100003C0E5FF04C0E5FF05C0E5FF06C0E5FF11
:102D200007C0E5FF08C0E5FF09C0E5FF0AC0E5FFF1
:102D30000BC0E5FF0CC0E5FF0DC0E5FF020EDBCFC9
:102D400000F0030EDBCF01F0040EDBCF02F0050E26
:102D5000DBCF03F0060EDBCF04F0070EDBCF05F070
:102D6000080EDBCF06F0090EDBCF07F0086A096A10
:102D70000A6A0B6A200E0C6E0350800BE8440D6E3D
:102D80000050002601360236033608500826093660
:102D90000A360B360D50D8A4088007500B5C08E1AA
:102DA00006500A5C05E10550095C02E10450085C2C
:102DB00009E30450085E0550095A06500A5A0750A4
:102DC0000B5A00800C2ED8D703C0E9FF02C0F4FFD5
:102DD00001C0F3FF0050E4CF0DF0E4CF0CF0E4CFDE
:102DE0000BF0E4CF0AF0E4CF09F0E4CF08F0E4CF31
:102DF00007F0E4CF06F0E4CF05F0E4CF04F0E4CF31
:102E000003F0E4CF02F0E4CF01F0E4CF00F0E4CF30
:102E1000D9FF120000C0E5FF01C0E5FF02C0E5FFD9
:102E200003C0E5FFACA276D00FEC23F0006E00509B
:102E300005E10001E56B0001E46B6CD0E5C001F039
:102E4000005001260FEC23F0026E00060250230A08
:102E50001FE1010E005CD8A05BD00FEC23F0026EE6
:102E6000690A03E15BEC21F053D00250720A03E1DE
:102E700024EC25F04DD00250730A01E049D08B803C
:102E8000AB869D8A9D98AE50AE50AB98AB8840D033
:102E90000250430A05E00250420A01E039D001D055
:102EA000008E00C076FA00500F01006F010E0A017B
:102EB000776F0001E551011814E00FEC23F0026E6A
:102EC0000A017627000E0A017725006E036A0F0EAD
:102ED000032200C0E9FF03C0EAFF02C0EFFF772B27
:102EE000E8D7000E0A017725006E026A0F0E022253
:102EF0000A01761D036E032A00C0E9FF02C0EAFF43
:102F000003C0EFFF0A01772B77CA74FA0A016E6BD0
:102F100001C0E5F0E4CF03F0E4CF02F0E4CF01F02C
:102F2000E4CF00F01200D9CFE5FFE1CFD9FF00C018
:102F3000E5FF01C0E5FF02C0E5FF03C0E5FF04C0F7
:102F4000E5FF05C0E5FF06C0E5FF07C0E5FF020E8F
:102F5000DBCF00F0030EDBCF01F0040EDBCF02F07D
:102F6000050EDBCF03F002C006F00650046E800AA7
:102F700033E100C0E9FF01C0F3FF0250A3EC23F0EE
:102F8000056EF3CF06F0F4CF07F003C0E5FF05C0F0
:102F9000E9FF06C0F3FF075063EC25F000C0E9FF2E
:102FA00001C0F3FF0250A3EC23F0056EF3CF06F04F
:102FB000F4CF07F0052A02E3064A072A05C0E5FF19
:102FC00006C0F4FF07C0F6FF00C0E9FF01C0F3FF31
:102FD0000250F9EC24F01DD004AA1BD0047A04504E
:102FE00004E10350A0EC25F014D00450010A04E1E0
:102FF000035002EC00F00DD004500F0A04E103501E
:103000002AEC21F006D004500E0A03E10350B0EC84
:1030100025F0E4CF07F0E4CF06F0E4CF05F0E4CFED
:1030200004F0E4CF03F0E4CF02F0E4CF01F0E4CF0A
:1030300000F0E4CFD9FF1200D9CFE5FFE1CFD9FFEF
:1030400000C0E5FF01C0E5FF02C0E5FF03C0E5FFEA
:1030500004C0E5FF05C0E5FF06C0E5FF07C0E5FFCA
:10306000020EDBCF00F0030EDBCF01F0040EDBCF4E
:1030700002F0050EDBCF03F0E5C0E6F00001E451FD
:103080000001E65FE60703C004F0056A030E0426AC
:10309000D8B0052AE6C006F0076A0750800FF36E25
:1030A0000550800FF35C02E10450065C02E2E86820
:1030B0002BD0020E035C02E2E86A26D0030603501E
:1030C000E56ED9EC1FF0E652046A0350045C14E28A
:1030D00004500024056EE86A0120066EE86A0220AA
:1030E00005C0E9FF06C0F3FFC7EC24F0042AE56E33
:1030F000D9EC1FF0E652E9D7E5C0E6F00001E45153
:103100000001E65FE607E86AE4CF07F0E4CF06F0E7
:10311000E4CF05F0E4CF04F0E4CF03F0E4CF02F015
:10312000E4CF01F0E4CF00F0E4CFD9FF120000C0FB
:10313000E5FF01C0E5FF02C0E5FF03C0E5FF04C0F5
:10314000E5FF006A660E0024016E026A0A0E022282
:1031500001C0E9FF02C0EAFFEF6A002A020E005C2C
:10316000F1E3006A016A026A5C0E0124036E040E38
:103170000220046E03C0E9FF04C0EAFFEE6AEF6AB2
:10318000930E0124036E040E0220046E03C0E9FFB7
:1031900004C0EAFFEE6AEF6AB30E0124036E040E68
:1031A0000220046E03C0E9FF04C0EAFFEE6AEF6A82
:1031B000D30E0124036E040E0220046E03C0E9FF47
:1031C00004C0EAFFEE6AEF6A000E0124036E0A0EE5
:1031D0000220046E03C0E9FF04C0EAFFEE687F0E20
:1031E000EF6E020E0126D8B0022A002A100E005CF3
:1031F000D8A0BAD7AF0EC06EC16A010EC26EC2822D
:10320000E4CF04F0E4CF03F0E4CF02F0E4CF01F028
:10321000E4CF00F012004320412025642025640AF9
:103220000000D9CFE5FFE1CFD9FF00C0E5FF01C025
:10323000E5FF02C0E5FF03C0E5FF04C0E5FF05C0F0
:10324000E5FF020EDBCF00F0030EDBCF01F0040E32
:10325000DBCF02F00050020DF450036EF3CF00F00C
:10326000930E0024046E040E0320056E04C0E9FFD3
:1032700005C0EAFF01C0EEFF02C0EFFFB30E00245D
:10328000046E040E0320056E04C0E9FF05C0EAFFCA
:10329000EECF04F0EFCF05F00150045C016E025058
:1032A0000558026E200E00260A0E032200C0E9FF18
:1032B00003C0EAFF01C0EEFF02C0EFFFD88002AEFC
:1032C000D89004E3021E016CD8B4022A0250800F89
:1032D000800F02E1030E015C02E2016A026A015002
:1032E000021007E100C0E9FF03C0EAFF000EEE6A2A
:1032F000EF6AE4CF05F0E4CF04F0E4CF03F0E4CFCD
:1033000002F0E4CF01F0E4CF00F0E4CFD9FF1200E7
:10331000D9CFE5FFE1CFD9FF00C0E5FF01C0E5FF50
:1033200002C0E5FF03C0E5FF04C0E5FF05C0E5FFFF
:1033300006C0E5FF020EDBCF00F0030EDBCF01F08D
:10334000040EDBCF02F0050EDBCF03F0D88001AE18
:10335000D890046A0436045007E0011C066E001C75
:10336000056E054A062A04D000C005F001C006F02B
:10337000D88003AED89007E3031C016E021C006ED8
:10338000004A012A04D002C000F003C001F001503D
:10339000E56E0050E56E0650E56E0550E56E95EC65
:1033A0001BF0006EF3CF01F0040EE12604500AE09A
:1033B000011C036E001C026E024A032A03C0F3FFC5
:1033C000025003D001C0F3FF0050E4CF06F0E4CF79
:1033D00005F0E4CF04F0E4CF03F0E4CF02F0E4CF53
:1033E00001F0E4CF00F0E4CFD9FF1200D9CFE5FF20
:1033F000E1CFD9FF00C0E5FF01C0E5FF02C0E5FF56
:1034000003C0E5FF04C0E5FF05C0E5FF020EDBCF0A
:1034100000F0030EDBCF01F0040EDBCF02F0050E4F
:10342000DBCF03F0FEC404F0FFC405F00401FE3F4F
:1034300001D0FF2B0350E56E0450E56E31EC22F015
:10344000E652E652FEC404F0FFC405F00401FE3F5C
:1034500001D0FF2B0250056EE56E0450E56E31EC95
:1034600022F0E652E652FEC404F0FFC405F0040167
:10347000FE3F01D0FF2B0150056EE56E0450E56E56
:1034800031EC22F0E652E652FEC404F0FFC405F02F
:103490000401FE3F01D0FF2B0050E56E0450E56EA5
:1034A00031EC22F0E652E652E4CF05F0E4CF04F02E
:1034B000E4CF03F0E4CF02F0E4CF01F0E4CF00F07A
:1034C000E4CFD9FF120000C0E5FF01C0E5FF02C054
:1034D000E5FF03C0E5FFCBEC14F011EC0EF025EC9A
:1034E00014F0B6EC21F0006EF3CF01F0F4CF02F04F
:1034F000E9CF03F004013451005E3551015A3651D1
:10350000025A3751035A039E3F0E035C08E1FF0E37
:10351000025C05E1FF0E015C02E1FF0E005C33E29C
:10352000B6EC21F0F3CF01F0F4CF02F0E9CF03F0D5
:10353000880F0401346F130E0120356F000E022036
:10354000366F000E0320376F5EEC12F0006E0050F5
:10355000D8B4C1EC07F06CCA00F06C07005013E15E
:10356000E0C06CFA0001E12BE1C000F0E56A005018
:10357000E56E000EE56E4A0EE56E120EE56EE0ECAD
:103580001EF0050EE126E4CF03F0E4CF02F0E4CF15
:1035900001F0E4CF00F01200D9CFE5FFE1CFD9FF71
:1035A00000C0E5FF01C0E5FF02C0E5FF03C0E5FF85
:1035B00004C0E5FF05C0E5FF06C0E5FF020EDBCF56
:1035C00000F0030EDBCF01F0040EDBCF02F00A01A6
:1035D0006D5119E1F1EC15F0036EF3CF04F0F4CF67
:1035E00005F0E9CF06F003C0E5FF04C0F4FF05C015
:1035F000F6FF06C0F7FF00C0E9FF01C0F3FF02506D
:10360000D8EC24F01ED00A016D51010A1AE100C065
:10361000E9FF01C0F3FF0250EFEC22F0006EF3CFA0
:1036200001F0F4CF02F0E9CF03F00350E56E025051
:10363000E56E0150E56E0050E56EF6EC19F0040EF3
:10364000E126E4CF06F0E4CF05F0E4CF04F0E4CFC8
:1036500003F0E4CF02F0E4CF01F0E4CF00F0E4CFD8
:10366000D9FF1200D9CFE5FFE1CFD9FF00C0E5FFB8
:1036700001C0E5FF02C0E5FF03C0E5FF04C0E5FFB0
:1036800005C0E5FF06C0E5FF020EDBCF00F0030E2C
:10369000DBCF01F0040EDBCF02F0050EDBCF03F031
:1036A000060EDBCF04F0070EDBCF05F0080EDBCFF4
:1036B00006F0D88003AED89015E306500A0A12E14E
:1036C00004C0E9FF05C0EAFF2D0EEF6E044A052A8B
:1036D000031E021E011E006C05E1012A03E1022AFD
:1036E000D8B4032A0650E56E0550E56E0450E56E29
:1036F0000350E56E0250E56E0150E56E0050E56E38
:1037000049EC13F0070EE126E4CF06F0E4CF05F014
:10371000E4CF04F0E4CF03F0E4CF02F0E4CF01F013
:10372000E4CF00F0E4CFD9FF1200D9CFE5FFE1CF1D
:10373000D9FF00C0E5FF01C0E5FF02C0E5FF03C0FF
:10374000E5FF04C0E5FF05C0E5FF06C0E5FF020E8A
:10375000DBCF00F0030EDBCF01F0040EDBCF02F075
:10376000050EDBCF03F0046A056A0350800BE844C2
:10377000066E065011E10250022603360350015C2A
:1037800002E10250005C04E2D8900332023204D01D
:10379000052A05C004F0E9D70350015C02E102509C
:1037A000005C04E30250005E0350015AD8900332DB
:1037B000023204C005F004060550EEE101C0F3FF3B
:1037C0000050E4CF06F0E4CF05F0E4CF04F0E4CFFE
:1037D00003F0E4CF02F0E4CF01F0E4CF00F0E4CF57
:1037E000D9FF1200D9CFE5FFE1CFD9FF00C0E5FF37
:1037F00001C0E5FF02C0E5FF03C0E5FF04C0E5FF2F
:1038000005C0E5FF06C0E5FF020EDBCF00F0030EAA
:10381000DBCF01F00038E8441F0B026E036A660E2E
:1038200002260A0E032202C0E9FF03C0EAFFEFCF1F
:1038300004F0070E0014056E010E066E055005E03B
:10384000E86CD8900636010FFDE30650041202C062
:10385000E9FF03C0EAFF04C0EFFF026A240E00265E
:10386000040E022200C0E9FF02C0EAFF01C0EFFF20
:10387000E4CF06F0E4CF05F0E4CF04F0E4CF03F0AA
:10388000E4CF02F0E4CF01F0E4CF00F0E4CFD9FFC1
:10389000120000C0E5FF01C0E5FF02C0E5FF03C064
:1038A000E5FF73CA00F0016A7ECA02F0036A0250A3
:1038B000005E0350015AE56A800EE56E0150E56E28
:1038C0000050E56E88EC19F0006E040EE12600064B
:1038D0007ECA01F0430E2AEC21F0200E2AEC21F0E2
:1038E0000050800F7F0F20E3600E0124026E036AF8
:1038F000000E032202C0E9FF03C0EAFFEFCF02F08F
:10390000E56A0250E56E000EE56E4A0EE56E600E49
:10391000E56EE0EC1EF0050EE126012A0150800A5A
:1039200001E1016A0006DCD7E4CF03F0E4CF02F046
:10393000E4CF01F0E4CF00F01200D9CFE5FFE1CFF2
:10394000D9FF00C0E5FF01C0E5FF02C0E5FF03C0ED
:10395000E5FF04C0E5FF020EDBCF00F00038E844CD
:103960001F0B016E026A6A0E01260A0E022201C0B6
:10397000E9FF02C0EAFFEFCF01F0070E0016010ECB
:10398000026E000E036E005006E0E86CD89002361E
:103990000336010FFCE3046A0150021604500316BB
:1039A000025005E1035003E1026A022A01D0026AD3
:1039B0000250D880E866D890026A02360250E4CFFE
:1039C00004F0E4CF03F0E4CF02F0E4CF01F0E4CF61
:1039D00000F0E4CFD9FF1200D9CFE5FFE1CFD9FF46
:1039E00000C0E5FF01C0E5FF02C0E5FF03C0E5FF41
:1039F00004C0E5FF020EDBCF00F0030EDBCF01F0C9
:103A0000040EDBCF02F00A016D5111E1C4EC20F08D
:103A1000036EF3CF04F003C0E5FF04C0F4FF00C061
:103A2000E9FF01C0F3FF025040EC25F016D00A0177
:103A30006D51010A12E100C0E9FF01C0F3FF02501D
:103A400062EC24F0006EF3CF01F00150E56E0050FF
:103A5000E56E9CEC1FF0E652E652E4CF04F0E4CFB2
:103A600003F0E4CF02F0E4CF01F0E4CF00F0E4CFC4
:103A7000D9FF1200280EF66E4B0EF76E000EF86E90
:103A80000900F550056E0900F550066E04E1056762
:103A900002D087EF1DF00900F550006E0900F550C7
:103AA000016E0900F550026E09000900F550E96E3B
:103AB0000900F550EA6E090009000900F550036E8F
:103AC0000900F550046E09000900F6CF07F0F7CFA2
:103AD00008F0F8CF09F000C0F6FF01C0F7FF02C000
:103AE000F8FF035002E1045007E00900F550EE6EC4
:103AF0000306F8E20406F9D707C0F6FF08C0F7FF8F
:103B000009C0F8FF050601E2060646EF1DF01200A7
:103B1000D9CFE5FFE1CFD9FF00C0E5FF01C0E5FF48
:103B200002C0E5FF03C0E5FF04C0E5FF05C0E5FFF7
:103B3000020EDBCF00F00050010A24E1016A026AA4
:103B4000036AD30E0224046E040E0320056E04C023
:103B5000E9FF05C0EAFFEE687F0EEF6E000E02245B
:103B6000046E0A0E0320056E04C0E9FF05C0EAFFDB
:103B7000EE6AEF6A020E0226D8B0032A012A100E5E
:103B8000015CDFE300C0EAF0E4CF05F0E4CF04F02D
:103B9000E4CF03F0E4CF02F0E4CF01F0E4CF00F093
:103BA000E4CFD9FF120000C0E5FF01C0E5FF02C06D
:103BB000E5FF03C0E5FF04C0E5FF006A680E0024CE
:103BC000016E026A0A0E02226A0E0024036E046A63
:103BD0000A0E042203C0E9FF04C0EAFF010EEF6EE3
:103BE00001C0E9FF02C0EAFFEF6E002A020E005C8E
:103BF000E5E3006A230E0024016E026A0F0E022222
:103C000001C0E9FF02C0EAFFEF6A002A100E005C63
:103C1000F1E3E4CF04F0E4CF03F0E4CF02F0E4CF2B
:103C200001F0E4CF00F0120043207320256420252A
:103C3000640A0000D9CFE5FFE1CFD9FF00C0E5FF5E
:103C400001C0E5FF02C0E5FF03C0E5FF04C0E5FFDA
:103C500005C0E5FF020EDBCF00F0030EDBCF01F065
:103C6000040EDBCF02F0050EDBCF03F0060EDBCF38
:103C700004F0056A230E00260F0E0522800E015E59
:103C8000070E01160138F00B026E070E04160450E1
:103C9000022600C0E9FF05C0EAFF02C0EFFFE4CF43
:103CA00005F0E4CF04F0E4CF03F0E4CF02F0E4CF7A
:103CB00001F0E4CF00F0E4CFD9FF120000C0E5FF2F
:103CC00001C0E5FF02C0E5FFE0EC21F0006EE0EC92
:103CD00021F0016E0050026ED00E0224006E0A0E1A
:103CE000005C05E30050026EF90E0224006E0150E4
:103CF000026ED00E0224016E0A0E015C05E3015033
:103D0000026EF90E0224016E080E005C12E2100E23
:103D1000015CD8B00ED00038F00B0124006E8AECA4
:103D200020F0016E015005E10050E56ED8EC23F063
:103D3000E652E4CF02F0E4CF01F0E4CF00F012004D
:103D4000D9CFE5FFE1CFD9FF00C0E5FF01C0E5FF16
:103D500002C0E5FF03C0E5FF04C0E5FF020EDBCFB4
:103D600000F00038E8441F0B016E026A660E01265F
:103D70000A0E022201C0E9FF02C0EAFFEFCF03F002
:103D8000070E0016010E046E005005E0E86CD89096
:103D90000436010FFDE3041C031601C0E9FF02C055
:103DA000EAFF03C0EFFFE4CF04F0E4CF03F0E4CF79
:103DB00002F0E4CF01F0E4CF00F0E4CFD9FF12002D
:103DC000D9CFE5FFE1CFD9FF00C0E5FF01C0E5FF96
:103DD00002C0E5FF020ED924006E000EDA20016E4B
:103DE000800E026E030E0026000E012202220250F7
:103DF000E56E0150E56E0050E56E040EDBCFE5FF89
:103E0000030EDBCFE5FF020EDBCFE5FF0401FD5122
:103E1000E56EFC51E56EFB51E56E0EEC00F0006EB8
:103E2000F3CF01F0090EE12601C0F3FF0050E4CF0B
:103E300002F0E4CF01F0E4CF00F0E4CFD9FF1200AC
:103E4000D9CFE5FFE1CFD9FF00C0E5FF01C0E5FF15
:103E500002C0E5FF03C0E5FF020EDBCF00F0030E5A
:103E6000DBCF01F0040EDBCF02F00A016D510DE152
:103E700036EC24F0036E03C0E5FF00C0E9FF01C08B
:103E8000F3FF025063EC25F00FD00A016D51010AD7
:103E90000BE100C0E9FF01C0F3FF0250C7EC24F0C2
:103EA000E56EA6EC22F0E652E4CF03F0E4CF02F098
:103EB000E4CF01F0E4CF00F0E4CFD9FF120000C05E
:103EC000E5FF01C0E5FFE0EC21F0006E4C0A08E1DF
:103ED000E0EC21F0300A02E08B8229D08B9227D0CF
:103EE0000050450A24E1000EE56E4A0EE56E260EEE
:103EF000E56EE0EC1EF0030EE126AAEC25F0006E64
:103F000000C001F0000601500FE0E0EC21F0E56A8E
:103F1000E56E000EE56E4A0EE56E280EE56EE0ECED
:103F20001EF0050EE126ECD70A0E2AEC21F0E4CFB4
:103F300001F0E4CF00F01200D9CFE5FFE1CFD9FFC7
:103F400000C0E5FF01C0E5FF02C0E5FF03C0E5FFDB
:103F5000020EDBCF00F0030EDBCF01F0FEC402F057
:103F6000FFC403F00401FE3F01D0FF2B0150E56EBA
:103F70000250E56E31EC22F0E652E652FEC402F049
:103F8000FFC403F00401FE3F01D0FF2B0050E56E9B
:103F90000250E56E31EC22F0E652E652E4CF03F037
:103FA000E4CF02F0E4CF01F0E4CF00F0E4CFD9FF9A
:103FB0001200D9CFE5FFE1CFD9FF00C0E5FF01C076
:103FC000E5FF02C0E5FF03C0E5FF04C0E5FF020E08
:103FD000DBCF00F0E4C001F0026A014A022AE5C02A
:103FE00003F0046A0150031803E10250041801E0D1
:103FF00001D00ED0000E0001E425016E026A070E0A
:10400000022201C0E9FF02C0EAFF00C0EFFFE42B7B
:10401000E4CF04F0E4CF03F0E4CF02F0E4CF01F00A
:10402000E4CF00F0E4CFD9FF1200D9CFE5FFE1CF14
:10403000D9FF00C0E5FF01C0E5FF02C0E5FF03C0F6
:10404000E5FF020EDBCF00F0016A7ECA02F0036AD0
:104050000250002603500122E56A800EE56E0150F1
:10406000E56E0050E56E88EC19F0006EF3CF01F0BC
:10407000040EE126600E0026000E012200C0E9FFBA
:1040800001C0EAFFEFCF00F00050E4CF03F0E4CF2F
:1040900002F0E4CF01F0E4CF00F0E4CFD9FF12004A
:1040A000F3CFE5FFF4CFE5FFE9CFE5FFEACFE5FF8A
:1040B000FACFE5FFFBCFE5FF0001E25104017E6F7F
:1040C0000001E35104017F6FD6507C6FD7507D6FA4
:1040D000F2A411D00001E23F01D0E32BF2940001E1
:1040E000E25104017E6F0001E35104017F6FD6505D
:1040F0007C6FD7507D6F08EC25F0E4CFFBFFE4CF59
:10410000FAFFE4CFEAFFE4CFE9FFE4CFF4FFE4CF26
:10411000F3FF110000C0E5FF01C0E5FF02C0E5FFAD
:10412000010E006EE0EC21F0016E01C002F00150C2
:1041300023E00050E56E16EC25F0016EE6520150CA
:1041400010E10A0E005C0BE20A0E006EE56E16EC42
:1041500025F0016EE652015004E1E8680ED0E868EF
:104160000CD00150021802E0E86807D0002A1B0EAC
:10417000005CD8E3E86801D0E86AE4CF02F0E4CF5D
:1041800001F0E4CF00F0120000C0E5FF01C0E5FF40
:1041900002C0E5FF03C0E5FFFEC400F0FFC401F06C
:1041A0000401FE3F01D0FF2B0050E56E16EC25F018
:1041B000E652036E026AFEC400F0FFC401F004017F
:1041C000FE3F01D0FF2B0050E56E16EC25F0E652C5
:1041D000016A02120150031203C0F3FF0250E4CF40
:1041E00003F0E4CF02F0E4CF01F0E4CF00F01200DE
:1041F000D9CFE5FFE1CFD9FF00C0E5FF01C0E5FF62
:1042000002C0E5FF03C0E5FF04C0E5FF020EDBCFFF
:1042100000F0030EDBCF01F0040EDBCF02F0050E41
:10422000DBCF03F0060EDBCFE9FF070EDBCFEAFFA3
:10423000080EDBCF04F040EC04F0E4CF04F0E4CF50
:1042400003F0E4CF02F0E4CF01F0E4CF00F0E4CFDC
:10425000D9FF120000C0E5FF01C0E5FF02C0E5FF85
:10426000006E390E0001E925016E026A040E022279
:1042700001C0E9FF02C0EAFF00C0EFFF220EE95DC6
:1042800001E2E92B00500A0A0FE10001E951E56E55
:10429000800EE56E040EE56E390EE56E1CEC18F02E
:1042A000040EE1260001E96BE4CF02F0E4CF01F057
:1042B000E4CF00F012000001E46B0001E56B0001A7
:1042C000E6698B809490B06A3F0EAF6EB886AC8A78
:1042D000AC84AC8CAC90AB8CAB8E0A01756B0A01D4
:1042E0006F6B0A01726B0A01736B0A01746B000E2B
:1042F000E56A16EC25F00001E86FE6529F989F9A58
:10430000010E0001E76F0401FB6BFC6B2F0EFD6FCC
:1043100024EC25F01200D9CFE5FFE1CFD9FF00C092
:10432000E5FF01C0E5FF02C0E5FF03C0E5FF020EA7
:10433000DBCF00F0030EDBCF01F0040EDBCF02F089
:10434000050EDBCF03F0060EDBCFE9FF070EDBCF58
:10435000EAFF7AEC0BF0E4CF03F0E4CF02F0E4CF15
:1043600001F0E4CF00F0E4CFD9FF12000001E251E8
:104370000F01356F0001E3510F01366FD650336FD7
:10438000D750346F35510001E21905E10F01365164
:104390000001E3190CE00001E2510F01356F00014B
:1043A000E3510F01366FD650336FD750346F36CF8D
:1043B000E9FF35CFF4FF34CFF3FF0F013351120083
:1043C00000C0E5FF01C0E5FF0A0173510A017C1935
:1043D00005E00A0173510A01721902E1E86A15D079
:1043E00073CA00F00A01732B016A600E0026000EEA
:1043F000012200C0E9FF01C0EAFFEFCF00F07351D6
:10440000800A02E10A01736B0050E4CF01F0E4CFAF
:1044100000F01200D8CFE5FFE0CFE5FFE56EF3CF67
:10442000E5FFF4CFE5FFE9CFE5FFEACFE5FFFACFFF
:10443000E5FFFBCFE5FF5CEC11F0C6EC25F0E4CF27
:10444000FBFFE4CFFAFFE4CFEAFFE4CFE9FFE4CFDC
:10445000F4FFE4CFF3FFE450E4CFE0FFE4CFD8FF74
:104460001000D9CFE5FFE1CFD9FF00C0E5FF020E74
:10447000DBCF00F0030EDBCFA8FF00C0A9FFA69E94
:10448000A69CA684F29EF29C550EA76EAA0EA76E5D
:10449000A682A6A202D00000FCD7E86AA6B6E82A47
:1044A000A694F28EF28CE4CF00F0E4CFD9FF120094
:1044B000D9CFE5FFE1CFD9FF00C0E5FF01C0E5FF9F
:1044C000020EDBCF00F00050020DF450016EF3CF6E
:1044D00000F0200E00260A0E012200C0E9FF01C0F4
:1044E000EAFFEECF00F0EFCF01F001C0F3FF005084
:1044F000E4CF01F0E4CF00F0E4CFD9FF1200D9CF30
:10450000E5FFE1CFD9FF00C0E5FF01C0E5FF020EE6
:10451000DBCF00F00050020DF450016EF3CF00F03D
:104520005C0E0026040E012200C0E9FF01C0EAFF74
:10453000EECF00F0EFCF01F001C0F3FF0050E4CF69
:1045400001F0E4CF00F0E4CFD9FF1200D9CFE5FFAE
:10455000E1CFD9FF00C0E5FF01C0E5FF02C0E5FFE4
:10456000020EDBCF00F0FEC401F0FFC402F0040134
:10457000FE3F01D0FF2B0050E56E0150E56E31EC9F
:1045800022F0E652E652E4CF02F0E4CF01F0E4CFAD
:1045900000F0E4CFD9FF120000C0E5FFA4EC25F045
:1045A0000401896B806B8983006A89B3002A0050FB
:1045B000010BE844F46E8051FD0BF410806FD58E32
:1045C000D59CD59AD588D596D594D582D580F28AB2
:1045D000F184D08EF28EF28CE4CF00F01200E8AEBF
:1045E0000AD0F3CFEAFFEE50EECFF3FFEECFF4FFA9
:1045F000EECFE9FF1200E8BCBDEF25F0E9CFF6FFF2
:10460000F3CFF7FFF86E0900F5500900F5CFF3FF7F
:104610000900F5CFF4FF0900F5CFE9FF120000C053
:10462000E5FF01C0E5FF0001E4510001E51902E1E9
:10463000E86A0FD0000E0001E525006E016A070E42
:10464000012200C0E9FF01C0EAFFEFCF00F0E52B37
:104650000050E4CF01F0E4CF00F01200F2CFEAFF07
:10466000F29EA69EA69CA684E9CFA9FFF3CFAAFF3F
:10467000E4CFA8FF8BEC25F0F4CFA8FF8BEC25F05E
:10468000F6CFA8FF8BEC25F0F7CFA8FF8BEC25F039
:10469000A694EABEF28E120000C0E5FFE0EC21F025
:1046A000006E010A07E00050020A09E00050FF0A0C
:1046B0000BE00CD0E0EC21F00001E16F07D0E0EC62
:1046C00021F00001E06F02D06EEC25F0E4CF00F0A5
:1046D0001200D9CFE5FFE1CFD9FF00C0E5FF01C04F
:1046E000E5FF020EDBCF00F0016A230E00260F0E5D
:1046F000012200C0E9FF01C0EAFF000EEF6AE4CF2B
:1047000001F0E4CF00F0E4CFD9FF1200F2CFF6FFC2
:10471000F29EA69EA69CE9CFA9FFF3CFAAFFA68092
:10472000A850A94AAA2AA680A8CFF3FFA94AAA2A74
:10473000A680A8CFF4FFA94AAA2AA680A8CFEAFF9C
:10474000F6BEF28E1200E8AE08D0F3CFEAFFEE50CC
:10475000EECFF3FFEECFF4FF1200E8BCBFEF25F081
:10476000E9CFF6FFF3CFF7FFF86E0900F550090027
:10477000F5CFF3FF0900F5CFF4FF1200F2CFEAFF07
:10478000F29EA69EA69CA684E9CFA9FFF3CFAAFF1E
:10479000E4CFA8FF8BEC25F0F4CFA8FF8BEC25F03D
:1047A000F6CFA8FF8BEC25F0A694EABEF28E12009D
:1047B000D9CFE5FFE1CFD9FF00C0E5FF020EDBCF87
:1047C00000F000C0E8F00050E56E000EE56A31EC44
:1047D00022F0E652E652E4CF00F0E4CFD9FF120017
:1047E000F2CFF6FFF29EA69EA69CE9CFA9FFF3CFDB
:1047F000AAFFA680A850A94AAA2AA680A8CFF3FF9C
:10480000A94AAA2AA680A8CFF4FFF6BEF28E12000B
:1048100000C0E5FF01C0E5FF600E0A017325006ED0
:10482000016A000E012200C0E9FF01C0EAFFEFCFDC
:1048300000F00050E4CF01F0E4CF00F01200D9CF37
:10484000E5FFE1CFD9FF00C0E5FF020EDBCF00F0AE
:10485000610E005C05E37B0E005C02E2010E01D0FC
:10486000E86AE4CF00F0E4CFD9FF120000C0E5FF12
:1048700001C0E5FFFEC400F0FFC401F00401FE3FEB
:1048800001D0FF2B0050E56E16EC25F0E652E4CF88
:1048900001F0E4CF00F01200D9CFE5FFE1CFD9FF5E
:1048A00000C0E5FF020EDBCF00F000C0E7F00050D3
:1048B00004E124EC25F09D9A9D98E4CF00F0E4CF2C
:1048C000D9FF1200E8AE06D0F3CFEAFFEE50EECFEC
:1048D000F3FF1200E8BCBBEF25F0E9CFF6FFF3CF02
:1048E000F7FFF86E0900F5500900F5CFF3FF12004D
:1048F000F2CFEAFFF29EA69EA69CA684E9CFA9FF6E
:10490000F3CFAAFFE4CFA8FF8BEC25F0F4CFA8FFEC
:104910008BEC25F0A694EABEF28E120018EEFFF0A2
:1049200028EEFFF0F86AA68EA69CE9680E0EEA6EE5
:104930000068000EED6A0050FDE13AEC1DF006EC57
:1049400000F0FFD7F2CFF6FFF29EA69EA69CE9CF1D
:10495000A9FFF3CFAAFFA680A850A94AAA2AA68039
:10496000A8CFF3FFF6BEF28E1200F2CFEAFFF29E5E
:10497000A69EA69CA684E9CFA9FFF3CFAAFFE4CF09
:10498000A8FF8BEC25F0A694EABEF28E1200E8AEEA
:1049900004D0F3CFEAFFEE501200E8BCB9EF25F0E7
:1049A000E9CFF6FFF3CFF7FFF86E0900F5501200DC
:1049B000E8AE0BD0F3CFEAFFE4CFEEFFF4CFEEFF8B
:1049C000F6CFEEFFF7CFEEFF1200E8BCB7EF25F011
:1049D0001200C80000000000FF00000000070002F5
:1049E0000000004200000000000000000000000085
:1049F0000000E8AE09D0F3CFEAFFE4CFEEFFF4CF3A
:104A0000EEFFF6CFEEFF1200E8BCC1EF25F012007A
:104A1000120043732048656C6C6F20212074323D76
:104A20002025640A0000430025630000D9CFE5FF7C
:104A3000E1CFD9FF020EDBCFA9FFA69CA69EA680E0
:104A4000A850E4CFD9FF1200ACA2FED78B80AE50A5
:104A50000000AE50AB98AB88AB869D8A9D98120043
:104A600025642000F2CFF6FFF29EA69EA69CE9CF19
:104A7000A9FFF3CFAAFFA680A850F6BEF28E1200BF
:104A8000E8AE07D0F3CFEAFFE4CFEEFFF4CFEEFFBE
:104A90001200E8BCB5EF25F01200700ED36E9B8CAF
:104AA000FF0E9268936894689668626AF19E12009D
:104AB00000C0E5FF8AEC20F0006E005001E1FF002D
:104AC000E4CF00F01200E8AE05D0F3CFEAFFE4CF68
:104AD000EEFF1200E8BCB3EF25F01200010E0A0150
:104AE0006D6F1C0E0401FE6FFF6BC3EC25F012000E
:104AF000D9CFE5FFE1CFD9FF020EDBCFEDF0E4CF58
:104B0000D9FF12000A016D6B1C0E0401FE6FFF6BD2
:104B1000C3EC25F01200550EA76EAA0EA76EA68252
:104B2000A6B2FED7A94AAA2A0100D2490000E00095
:104B3000000020000000CCEC22F05BEC21F0120021
:104B4000ACA2FED7AD6E12004DEC25F012000A01AA
:104B5000735112000A017D5112000001E751120049
:104B6000E8CF7FFF1200B5EF24F078EF24F02EEFAE
:104B700023F032EF25F0A2EF24F086EF23F0F0EFE0
:0E4B800023F0BEEF23F012001200120012000C
:00000001FF
